{"contracts/DrugChainRegistry.sol":{"DrugChainRegistry":{"abi":[{"inputs":[{"internalType":"address","name":"_zkVerifyProxy","type":"address"}],"stateMutability":"nonpayable","type":"constructor"},{"anonymous":false,"inputs":[{"indexed":true,"internalType":"bytes32","name":"batchId","type":"bytes32"},{"indexed":false,"internalType":"string","name":"reason","type":"string"}],"name":"BatchFlaggedSuspicious","type":"event"},{"anonymous":false,"inputs":[{"indexed":true,"internalType":"bytes32","name":"batchId","type":"bytes32"},{"indexed":false,"internalType":"bytes32","name":"manufacturerHash","type":"bytes32"},{"indexed":false,"internalType":"string","name":"drugName","type":"string"}],"name":"BatchRegistered","type":"event"},{"anonymous":false,"inputs":[{"indexed":true,"internalType":"bytes32","name":"batchId","type":"bytes32"},{"indexed":false,"internalType":"bytes32","name":"from","type":"bytes32"},{"indexed":false,"internalType":"bytes32","name":"to","type":"bytes32"},{"indexed":false,"internalType":"uint8","name":"chainStep","type":"uint8"}],"name":"CustodyTransferred","type":"event"},{"anonymous":false,"inputs":[{"indexed":true,"internalType":"bytes32","name":"batchId","type":"bytes32"},{"indexed":false,"internalType":"bytes32","name":"zkProofLeafDigest","type":"bytes32"},{"indexed":false,"internalType":"uint8","name":"chainStep","type":"uint8"}],"name":"CustodyVerified","type":"event"},{"anonymous":false,"inputs":[{"indexed":true,"internalType":"bytes32","name":"entityIdHash","type":"bytes32"},{"indexed":false,"internalType":"string","name":"name","type":"string"},{"indexed":false,"internalType":"uint8","name":"entityType","type":"uint8"},{"indexed":false,"internalType":"address","name":"wallet","type":"address"}],"name":"EntityRegistered","type":"event"},{"inputs":[{"internalType":"bytes32","name":"","type":"bytes32"}],"name":"batches","outputs":[{"internalType":"bytes32","name":"batchId","type":"bytes32"},{"internalType":"bytes32","name":"manufacturerEntityHash","type":"bytes32"},{"internalType":"string","name":"drugName","type":"string"},{"internalType":"string","name":"batchNumber","type":"string"},{"internalType":"uint256","name":"manufactureDate","type":"uint256"},{"internalType":"uint256","name":"expiryDate","type":"uint256"},{"internalType":"bool","name":"isActive","type":"bool"}],"stateMutability":"view","type":"function"},{"inputs":[{"internalType":"bytes32","name":"","type":"bytes32"},{"internalType":"uint256","name":"","type":"uint256"}],"name":"custodyChain","outputs":[{"internalType":"bytes32","name":"fromEntityHash","type":"bytes32"},{"internalType":"bytes32","name":"toEntityHash","type":"bytes32"},{"internalType":"bytes32","name":"batchId","type":"bytes32"},{"internalType":"bytes32","name":"zkProofLeafDigest","type":"bytes32"},{"internalType":"bytes32","name":"batchCommitment","type":"bytes32"},{"internalType":"uint8","name":"chainStep","type":"uint8"},{"internalType":"uint256","name":"timestamp","type":"uint256"},{"internalType":"bool","name":"zkVerified","type":"bool"}],"stateMutability":"view","type":"function"},{"inputs":[{"internalType":"bytes32","name":"","type":"bytes32"}],"name":"entities","outputs":[{"internalType":"bytes32","name":"entityIdHash","type":"bytes32"},{"internalType":"string","name":"name","type":"string"},{"internalType":"uint8","name":"entityType","type":"uint8"},{"internalType":"bool","name":"isActive","type":"bool"},{"internalType":"address","name":"wallet","type":"address"}],"stateMutability":"view","type":"function"},{"inputs":[{"internalType":"bytes32","name":"batchId","type":"bytes32"}],"name":"getFullCustodyChain","outputs":[{"components":[{"internalType":"bytes32","name":"fromEntityHash","type":"bytes32"},{"internalType":"bytes32","name":"toEntityHash","type":"bytes32"},{"internalType":"bytes32","name":"batchId","type":"bytes32"},{"internalType":"bytes32","name":"zkProofLeafDigest","type":"bytes32"},{"internalType":"bytes32","name":"batchCommitment","type":"bytes32"},{"internalType":"uint8","name":"chainStep","type":"uint8"},{"internalType":"uint256","name":"timestamp","type":"uint256"},{"internalType":"bool","name":"zkVerified","type":"bool"}],"internalType":"struct DrugChainRegistry.CustodyRecord[]","name":"","type":"tuple[]"}],"stateMutability":"view","type":"function"},{"inputs":[],"name":"owner","outputs":[{"internalType":"address","name":"","type":"address"}],"stateMutability":"view","type":"function"},{"inputs":[{"internalType":"bytes32","name":"batchId","type":"bytes32"},{"internalType":"bytes32","name":"toEntityHash","type":"bytes32"},{"internalType":"bytes32","name":"zkProofLeafDigest","type":"bytes32"},{"internalType":"bytes32","name":"batchCommitment","type":"bytes32"},{"internalType":"uint8","name":"chainStep","type":"uint8"},{"internalType":"uint256","name":"aggregationId","type":"uint256"},{"internalType":"bytes32[]","name":"merklePath","type":"bytes32[]"},{"internalType":"bool[]","name":"leafSide","type":"bool[]"}],"name":"recordCustodyTransfer","outputs":[],"stateMutability":"nonpayable","type":"function"},{"inputs":[{"internalType":"bytes32","name":"batchId","type":"bytes32"},{"internalType":"string","name":"drugName","type":"string"},{"internalType":"string","name":"batchNumber","type":"string"},{"internalType":"uint256","name":"expiryDate","type":"uint256"}],"name":"registerBatch","outputs":[],"stateMutability":"nonpayable","type":"function"},{"inputs":[{"internalType":"bytes32","name":"entityIdHash","type":"bytes32"},{"internalType":"string","name":"name","type":"string"},{"internalType":"uint8","name":"entityType","type":"uint8"},{"internalType":"address","name":"wallet","type":"address"}],"name":"registerEntity","outputs":[],"stateMutability":"nonpayable","type":"function"},{"inputs":[{"internalType":"bytes32","name":"","type":"bytes32"}],"name":"verifiedProofs","outputs":[{"internalType":"bool","name":"","type":"bool"}],"stateMutability":"view","type":"function"},{"inputs":[{"internalType":"bytes32","name":"batchId","type":"bytes32"}],"name":"verifyBatchAtPharmacy","outputs":[{"internalType":"bool","name":"isAuthentic","type":"bool"},{"internalType":"uint256","name":"chainLength","type":"uint256"},{"internalType":"uint256","name":"lastVerifiedTimestamp","type":"uint256"}],"stateMutability":"view","type":"function"},{"inputs":[{"internalType":"address","name":"","type":"address"}],"name":"walletToEntity","outputs":[{"internalType":"bytes32","name":"","type":"bytes32"}],"stateMutability":"view","type":"function"},{"inputs":[],"name":"zkVerifyProxy","outputs":[{"internalType":"contract IZkVerify","name":"","type":"address"}],"stateMutability":"view","type":"function"}],"evm":{"bytecode":{"linkReferences":{},"object":"60803461007a57601f61189538819003918201601f19168301916001600160401b0383118484101761007f5780849260209460405283398101031261007a57516001600160a01b0381169081900361007a5760018060a01b03193381600054161760005560015416176001556040516117ff90816100968239f35b600080fd5b634e487b7160e01b600052604160045260246000fdfe608080604052600436101561001357600080fd5b60003560e01c908163176d80c41461133c575080635a10798214610e7e57806363bc416f14610886578063692d771e1461085357806383d06421146108155780638da5cb5b146107ec5780639cc368b9146106d3578063c81e25ab14610635578063e55c3b5a146101e8578063e5b338fd14610169578063ea303ab4146101405763fbf888da146100a357600080fd5b3461013b57604036600319011261013b5760243560043560005260046020526040600020805482101561013b57610100916100dd91611522565b508054906001810154906002810154600382015460048301549060ff6005850154169260ff600760068701549601541695604051978852602088015260408701526060860152608085015260a084015260c0830152151560e0820152f35b600080fd5b3461013b57600036600319011261013b576001546040516001600160a01b039091168152602090f35b3461013b57602036600319011261013b57600435600052600260205260406000208054600261019a6001840161143d565b9201546101b9604051938493845260a0602085015260a08401906114e2565b60ff8083166040850152600883901c161515606084015260109190911c6001600160a01b031660808301520390f35b3461013b57608036600319011261013b5760246001600160401b03813581811161013b5761021a903690600401611369565b909160449081359360ff8516850361013b576001600160a01b0392606480359391858516850361013b578560005416330361060857600435600052600260205260ff60026040600020015460081c166105c757600360ff89161161059057858516156105565785851660005260066020526040600020546105095750506040519060a08201828110828211176104f45760405260043582526102bd3687856115a0565b906020830191825260ff88166040840152600160608401528585166080840152600435600052600260205260406000209183518355519889519182116104e0575061030b60018301546113c6565b601f8111610499575b506020601f82116001146103fe5760ff9492826103dc95936002937f4f91ab7188f04e47cf7377263398321fda0ad92ecf841895dc7c8445f494049b9c9d6000926103f3575b50508160011b916000199060031b1c19161760018201555b0190846040820151169082549161ff006060830151151560081b1691608062010000600160b01b0391015160101b169269ffffffffffffffffffff60b01b1617171790558484166000526006602052600435604060002055604051956060875260608701916115e6565b9516602084015216604082015280600435930390a2005b015190508d8061035a565b6001830160005260206000209960005b601f19841681106104815750926001837f4f91ab7188f04e47cf7377263398321fda0ad92ecf841895dc7c8445f494049b9b9c60029460ff99976103dc9997601f19811610610468575b505050811b016001820155610372565b015160001960f88460031b161c191690558d8080610458565b828201518c556001909b019a6020928301920161040e565b600183016000526020600020601f830160051c8101602084106104d9575b601f830160051c820181106104cd575050610314565b600081556001016104b7565b50806104b7565b634e487b7160e01b60009081526041600452fd5b88634e487b7160e01b60005260416004526000fd5b61747960f01b6084927f57616c6c657420616c7265616479206c696e6b656420746f20616e20656e74698b9360226040519562461bcd60e51b875260206004880152860152840152820152fd5b75496e76616c69642077616c6c6574206164647265737360501b899160166040519362461bcd60e51b855260206004860152840152820152fd5b72496e76616c696420656e74697479207479706560681b899160136040519362461bcd60e51b855260206004860152840152820152fd5b7f456e7469747920616c7265616479207265676973746572656400000000000000899160196040519362461bcd60e51b855260206004860152840152820152fd5b682737ba1037bbb732b960b91b899160096040519362461bcd60e51b855260206004860152840152820152fd5b3461013b57602036600319011261013b5760043560005260036020526040600020805460018201549161066a6002820161143d565b6106766003830161143d565b916106bd6004820154936106af60ff6006600586015495015416946040519889988952602089015260e0604089015260e08801906114e2565b9086820360608801526114e2565b92608085015260a0840152151560c08301520390f35b3461013b5760208060031936011261013b576004356000526004815260406000209081546001600160401b0381116107d65760405190610718838260051b018361141c565b8082528282018094600052836000206000915b8383106107b95760408051878152865181890181905289928201908960005b8281106107575784840385f35b855180518552808301518584015260408082015190860152606080820151908601526080808201519086015260a08082015160ff169086015260c0808201519086015260e090810151151590850152948101946101009093019260010161074a565b6008866001926107c885611607565b81520192019201919061072b565b634e487b7160e01b600052604160045260246000fd5b3461013b57600036600319011261013b576000546040516001600160a01b039091168152602090f35b3461013b57602036600319011261013b576004356001600160a01b0381169081900361013b5760005260066020526020604060002054604051908152f35b3461013b57602036600319011261013b576060610871600435611668565b90604051921515835260208301526040820152f35b3461013b5761010036600319011261013b5760843560ff8116810361013b576001600160401b0360c43581811161013b576108c5903690600401611396565b909160e43590811161013b576108df903690600401611396565b336000526006602052604060002054600052600260205261090d60ff60026040600020015460081c16611554565b600435600052600360205260ff6006604060002001541615610e4657602435600052600260205260ff60026040600020015460081c1615610e0157604435600052600560205260ff60406000205416610dc75760015460405163ae1c5c7d60e01b815260a435600482015260448035602483015260809082015260848101859052946001600160a01b0390911693906001600160fb1b03821161013b5760c4908694939260051b809160a487013784018260a4820160a0878403016064880152520191906000905b808210610d9e5750505091818060209403915afa908115610d9257600091610d57575b5015610d12573360005260066020526040600020546004356000526004602052604060002054801515600014610ca757600435600052600460205260406000206000198201918211610c9157610a5791610a5191611522565b50611607565b81602082015103610c4c5760a060ff9101511660ff83161115610c07575b604051610a8181611400565b818152602435602082015260043560408201526044356060820152606435608082015260ff831660a08201524260c0820152600160e0820152600435600052600460205260406000208054680100000000000000008110156107d657610aec91600182018155611522565b610bf157610b5e908251815560208301516001820155604083015160028201556060830151600382015560808301516004820155600760e0600583019460ff60a0820151169560ff19968782541617905560c081015160068501550151151591019060ff801983541691151516179055565b60443560005260056020526001604060002091825416179055604051908152602435602082015260ff821660408201527f5c18e5ea02909ab7f26024a3bdedcd64c5a7fb15e48c11f2231b193cc73bed99606060043592a260ff6040519160443583521660208201527fdc405c52b0a2758eae9d37e1e149d235ae3569cc618a86d327a8cf0e8f7b0add604060043592a2005b634e487b7160e01b600052600060045260246000fd5b60405162461bcd60e51b815260206004820152601e60248201527f496e76616c696420636861696e20737465702070726f6772657373696f6e00006044820152606490fd5b60405162461bcd60e51b815260206004820152601960248201527f4e6f74207468652063757272656e7420637573746f6469616e000000000000006044820152606490fd5b634e487b7160e01b600052601160045260246000fd5b5060036020526040600020600101548114610a755760405162461bcd60e51b815260206004820152602860248201527f4669727374207472616e73666572206d7573742062652066726f6d206d616e756044820152673330b1ba3ab932b960c11b6064820152608490fd5b60405162461bcd60e51b815260206004820152601b60248201527f5a4b2050726f6f66204174746573746174696f6e206661696c656400000000006044820152606490fd5b90506020813d602011610d8a575b81610d726020938361141c565b8101031261013b5751801515810361013b57826109f8565b3d9150610d65565b6040513d6000823e3d90fd5b919350918335801515919082900361013b576020816001938293520194019201859392916109d5565b60405162461bcd60e51b8152602060048201526012602482015271141c9bdbd988185b1c9958591e481d5cd95960721b6044820152606490fd5b60405162461bcd60e51b815260206004820152601b60248201527f526563656976696e6720656e74697479206e6f742061637469766500000000006044820152606490fd5b60405162461bcd60e51b815260206004820152601060248201526f4261746368206e6f742061637469766560801b6044820152606490fd5b3461013b57608036600319011261013b576024356001600160401b03811161013b57610eae903690600401611369565b6044356001600160401b03811161013b57610ecd903690600401611369565b92903360005260066020526040600020546000526002602052610efd60ff60026040600020015460081c16611554565b3360005260066020526040600020549081600052600260205260ff600260406000200154166112e757600435600052600360205260ff600660406000200154166112ab576040519460e086018681106001600160401b038211176107d6576040526004358652610f886020870192848452610f793688886115a0565b926040890193845236916115a0565b606087015242608087015260643560a0870152600160c0870152600435600052600360205260406000209186518355516001830155518051906001600160401b0382116107d6578190610fde60028501546113c6565b601f8111611258575b50602090601f83116001146111e6576000926111db575b50508160011b916000199060031b1c19161760028201555b60608501519485516001600160401b0381116107d65761103960038401546113c6565b601f8111611194575b506020601f82116001146110fa576110ca93928260069360c0937f091b2522ac0eaf16871ab1bdf545800630347ae398e7f27fa16794512cbb2ec29a9b6000926110ef575b50508160011b916000199060031b1c19161760038501555b6080810151600485015560a081015160058501550151151591019060ff801983541691151516179055565b6110ea6040519283928352604060208401526004359560408401916115e6565b0390a2005b015190508b80611087565b6003840160005260206000209760005b601f198416811061117c5750926001837f091b2522ac0eaf16871ab1bdf545800630347ae398e7f27fa16794512cbb2ec2999a60c0946110ca9897600697601f19811610611163575b505050811b01600385015561109f565b015160001960f88460031b161c191690558b8080611153565b828201518a556001909901986020928301920161110a565b600384016000526020600020601f830160051c8101602084106111d4575b601f830160051c820181106111c8575050611042565b600081556001016111b2565b50806111b2565b015190508780610ffe565b9250600284016000526020600020906000935b601f198416851061123d576001945083601f19811610611224575b505050811b016002820155611016565b015160001960f88460031b161c19169055878080611214565b818101518355602094850194600190930192909101906111f9565b909150600284016000526020600020601f840160051c8101602085106112a4575b90849392915b601f830160051c82018110611295575050610fe7565b6000815585945060010161127f565b5080611279565b60405162461bcd60e51b8152602060048201526014602482015273426174636820616c72656164792061637469766560601b6044820152606490fd5b60405162461bcd60e51b815260206004820152602760248201527f4f6e6c79206d616e756661637475726572732063616e207265676973746572206044820152666261746368657360c81b6064820152608490fd5b3461013b57602036600319011261013b576020906004356000526005825260ff6040600020541615158152f35b9181601f8401121561013b578235916001600160401b03831161013b576020838186019501011161013b57565b9181601f8401121561013b578235916001600160401b03831161013b576020808501948460051b01011161013b57565b90600182811c921680156113f6575b60208310146113e057565b634e487b7160e01b600052602260045260246000fd5b91607f16916113d5565b61010081019081106001600160401b038211176107d657604052565b90601f801991011681019081106001600160401b038211176107d657604052565b90604051918260008254611450816113c6565b908184526020946001916001811690816000146114c05750600114611481575b50505061147f9250038361141c565b565b600090815285812095935091905b8183106114a857505061147f9350820101388080611470565b8554888401850152948501948794509183019161148f565b9250505061147f94925060ff191682840152151560051b820101388080611470565b919082519283825260005b84811061150e575050826000602080949584010152601f8019910116010190565b6020818301810151848301820152016114ed565b805482101561153e5760005260206000209060031b0190600090565b634e487b7160e01b600052603260045260246000fd5b1561155b57565b60405162461bcd60e51b815260206004820152601e60248201527f43616c6c6572206973206e6f7420616e2061637469766520656e7469747900006044820152606490fd5b9291926001600160401b0382116107d657604051916115c9601f8201601f19166020018461141c565b82948184528183011161013b578281602093846000960137010152565b908060209392818452848401376000828201840152601f01601f1916010190565b9060405161161481611400565b60e060ff6007839580548552600181015460208601526002810154604086015260038101546060860152600481015460808601528260058201541660a0860152600681015460c08601520154161515910152565b6000908082526020906003825260ff6006604085200154161561178b57825260048152604082209182546001600160401b03811161177757604051936116b3848360051b018661141c565b81855282528282208290848087015b848410611758575050505050825192831561174e57600019840184811161173a57815181101561172657600260408560039460ff9460051b010151948260c087015197808801518352522001541614908161171b575092565b60e091500151151592565b634e487b7160e01b83526032600452602483fd5b634e487b7160e01b83526011600452602483fd5b5091505080918190565b60019160089161176785611607565b81520192019201919085906116c2565b634e487b7160e01b82526041600452602482fd5b60405162461bcd60e51b81526004810183905260166024820152754261746368206e6f7420666f756e642f61637469766560501b6044820152606490fdfea26469706673582212207fba77799b266cb534dcc98f8e01832bc8988dac016bd16a93c1b91fb85f3ffd64736f6c63430008180033","opcodes":"PUSH1 0x80 CALLVALUE PUSH2 0x7A JUMPI PUSH1 0x1F PUSH2 0x1895 CODESIZE DUP2 SWAP1 SUB SWAP2 DUP3 ADD PUSH1 0x1F NOT AND DUP4 ADD SWAP2 PUSH1 0x1 PUSH1 0x1 PUSH1 0x40 SHL SUB DUP4 GT DUP5 DUP5 LT OR PUSH2 0x7F JUMPI DUP1 DUP5 SWAP3 PUSH1 0x20 SWAP5 PUSH1 0x40 MSTORE DUP4 CODECOPY DUP2 ADD SUB SLT PUSH2 0x7A JUMPI MLOAD PUSH1 0x1 PUSH1 0x1 PUSH1 0xA0 SHL SUB DUP2 AND SWAP1 DUP2 SWAP1 SUB PUSH2 0x7A JUMPI PUSH1 0x1 DUP1 PUSH1 0xA0 SHL SUB NOT CALLER DUP2 PUSH1 0x0 SLOAD AND OR PUSH1 0x0 SSTORE PUSH1 0x1 SLOAD AND OR PUSH1 0x1 SSTORE PUSH1 0x40 MLOAD PUSH2 0x17FF SWAP1 DUP2 PUSH2 0x96 DUP3 CODECOPY RETURN JUMPDEST PUSH1 0x0 DUP1 REVERT JUMPDEST PUSH4 0x4E487B71 PUSH1 0xE0 SHL PUSH1 0x0 MSTORE PUSH1 0x41 PUSH1 0x4 MSTORE PUSH1 0x24 PUSH1 0x0 REVERT INVALID PUSH1 0x80 DUP1 PUSH1 0x40 MSTORE PUSH1 0x4 CALLDATASIZE LT ISZERO PUSH2 0x13 JUMPI PUSH1 0x0 DUP1 REVERT JUMPDEST PUSH1 0x0 CALLDATALOAD PUSH1 0xE0 SHR SWAP1 DUP2 PUSH4 0x176D80C4 EQ PUSH2 0x133C JUMPI POP DUP1 PUSH4 0x5A107982 EQ PUSH2 0xE7E JUMPI DUP1 PUSH4 0x63BC416F EQ PUSH2 0x886 JUMPI DUP1 PUSH4 0x692D771E EQ PUSH2 0x853 JUMPI DUP1 PUSH4 0x83D06421 EQ PUSH2 0x815 JUMPI DUP1 PUSH4 0x8DA5CB5B EQ PUSH2 0x7EC JUMPI DUP1 PUSH4 0x9CC368B9 EQ PUSH2 0x6D3 JUMPI DUP1 PUSH4 0xC81E25AB EQ PUSH2 0x635 JUMPI DUP1 PUSH4 0xE55C3B5A EQ PUSH2 0x1E8 JUMPI DUP1 PUSH4 0xE5B338FD EQ PUSH2 0x169 JUMPI DUP1 PUSH4 0xEA303AB4 EQ PUSH2 0x140 JUMPI PUSH4 0xFBF888DA EQ PUSH2 0xA3 JUMPI PUSH1 0x0 DUP1 REVERT JUMPDEST CALLVALUE PUSH2 0x13B JUMPI PUSH1 0x40 CALLDATASIZE PUSH1 0x3 NOT ADD SLT PUSH2 0x13B JUMPI PUSH1 0x24 CALLDATALOAD PUSH1 0x4 CALLDATALOAD PUSH1 0x0 MSTORE PUSH1 0x4 PUSH1 0x20 MSTORE PUSH1 0x40 PUSH1 0x0 KECCAK256 DUP1 SLOAD DUP3 LT ISZERO PUSH2 0x13B JUMPI PUSH2 0x100 SWAP2 PUSH2 0xDD SWAP2 PUSH2 0x1522 JUMP JUMPDEST POP DUP1 SLOAD SWAP1 PUSH1 0x1 DUP2 ADD SLOAD SWAP1 PUSH1 0x2 DUP2 ADD SLOAD PUSH1 0x3 DUP3 ADD SLOAD PUSH1 0x4 DUP4 ADD SLOAD SWAP1 PUSH1 0xFF PUSH1 0x5 DUP6 ADD SLOAD AND SWAP3 PUSH1 0xFF PUSH1 0x7 PUSH1 0x6 DUP8 ADD SLOAD SWAP7 ADD SLOAD AND SWAP6 PUSH1 0x40 MLOAD SWAP8 DUP9 MSTORE PUSH1 0x20 DUP9 ADD MSTORE PUSH1 0x40 DUP8 ADD MSTORE PUSH1 0x60 DUP7 ADD MSTORE PUSH1 0x80 DUP6 ADD MSTORE PUSH1 0xA0 DUP5 ADD MSTORE PUSH1 0xC0 DUP4 ADD MSTORE ISZERO ISZERO PUSH1 0xE0 DUP3 ADD MSTORE RETURN JUMPDEST PUSH1 0x0 DUP1 REVERT JUMPDEST CALLVALUE PUSH2 0x13B JUMPI PUSH1 0x0 CALLDATASIZE PUSH1 0x3 NOT ADD SLT PUSH2 0x13B JUMPI PUSH1 0x1 SLOAD PUSH1 0x40 MLOAD PUSH1 0x1 PUSH1 0x1 PUSH1 0xA0 SHL SUB SWAP1 SWAP2 AND DUP2 MSTORE PUSH1 0x20 SWAP1 RETURN JUMPDEST CALLVALUE PUSH2 0x13B JUMPI PUSH1 0x20 CALLDATASIZE PUSH1 0x3 NOT ADD SLT PUSH2 0x13B JUMPI PUSH1 0x4 CALLDATALOAD PUSH1 0x0 MSTORE PUSH1 0x2 PUSH1 0x20 MSTORE PUSH1 0x40 PUSH1 0x0 KECCAK256 DUP1 SLOAD PUSH1 0x2 PUSH2 0x19A PUSH1 0x1 DUP5 ADD PUSH2 0x143D JUMP JUMPDEST SWAP3 ADD SLOAD PUSH2 0x1B9 PUSH1 0x40 MLOAD SWAP4 DUP5 SWAP4 DUP5 MSTORE PUSH1 0xA0 PUSH1 0x20 DUP6 ADD MSTORE PUSH1 0xA0 DUP5 ADD SWAP1 PUSH2 0x14E2 JUMP JUMPDEST PUSH1 0xFF DUP1 DUP4 AND PUSH1 0x40 DUP6 ADD MSTORE PUSH1 0x8 DUP4 SWAP1 SHR AND ISZERO ISZERO PUSH1 0x60 DUP5 ADD MSTORE PUSH1 0x10 SWAP2 SWAP1 SWAP2 SHR PUSH1 0x1 PUSH1 0x1 PUSH1 0xA0 SHL SUB AND PUSH1 0x80 DUP4 ADD MSTORE SUB SWAP1 RETURN JUMPDEST CALLVALUE PUSH2 0x13B JUMPI PUSH1 0x80 CALLDATASIZE PUSH1 0x3 NOT ADD SLT PUSH2 0x13B JUMPI PUSH1 0x24 PUSH1 0x1 PUSH1 0x1 PUSH1 0x40 SHL SUB DUP2 CALLDATALOAD DUP2 DUP2 GT PUSH2 0x13B JUMPI PUSH2 0x21A SWAP1 CALLDATASIZE SWAP1 PUSH1 0x4 ADD PUSH2 0x1369 JUMP JUMPDEST SWAP1 SWAP2 PUSH1 0x44 SWAP1 DUP2 CALLDATALOAD SWAP4 PUSH1 0xFF DUP6 AND DUP6 SUB PUSH2 0x13B JUMPI PUSH1 0x1 PUSH1 0x1 PUSH1 0xA0 SHL SUB SWAP3 PUSH1 0x64 DUP1 CALLDATALOAD SWAP4 SWAP2 DUP6 DUP6 AND DUP6 SUB PUSH2 0x13B JUMPI DUP6 PUSH1 0x0 SLOAD AND CALLER SUB PUSH2 0x608 JUMPI PUSH1 0x4 CALLDATALOAD PUSH1 0x0 MSTORE PUSH1 0x2 PUSH1 0x20 MSTORE PUSH1 0xFF PUSH1 0x2 PUSH1 0x40 PUSH1 0x0 KECCAK256 ADD SLOAD PUSH1 0x8 SHR AND PUSH2 0x5C7 JUMPI PUSH1 0x3 PUSH1 0xFF DUP10 AND GT PUSH2 0x590 JUMPI DUP6 DUP6 AND ISZERO PUSH2 0x556 JUMPI DUP6 DUP6 AND PUSH1 0x0 MSTORE PUSH1 0x6 PUSH1 0x20 MSTORE PUSH1 0x40 PUSH1 0x0 KECCAK256 SLOAD PUSH2 0x509 JUMPI POP POP PUSH1 0x40 MLOAD SWAP1 PUSH1 0xA0 DUP3 ADD DUP3 DUP2 LT DUP3 DUP3 GT OR PUSH2 0x4F4 JUMPI PUSH1 0x40 MSTORE PUSH1 0x4 CALLDATALOAD DUP3 MSTORE PUSH2 0x2BD CALLDATASIZE DUP8 DUP6 PUSH2 0x15A0 JUMP JUMPDEST SWAP1 PUSH1 0x20 DUP4 ADD SWAP2 DUP3 MSTORE PUSH1 0xFF DUP9 AND PUSH1 0x40 DUP5 ADD MSTORE PUSH1 0x1 PUSH1 0x60 DUP5 ADD MSTORE DUP6 DUP6 AND PUSH1 0x80 DUP5 ADD MSTORE PUSH1 0x4 CALLDATALOAD PUSH1 0x0 MSTORE PUSH1 0x2 PUSH1 0x20 MSTORE PUSH1 0x40 PUSH1 0x0 KECCAK256 SWAP2 DUP4 MLOAD DUP4 SSTORE MLOAD SWAP9 DUP10 MLOAD SWAP2 DUP3 GT PUSH2 0x4E0 JUMPI POP PUSH2 0x30B PUSH1 0x1 DUP4 ADD SLOAD PUSH2 0x13C6 JUMP JUMPDEST PUSH1 0x1F DUP2 GT PUSH2 0x499 JUMPI JUMPDEST POP PUSH1 0x20 PUSH1 0x1F DUP3 GT PUSH1 0x1 EQ PUSH2 0x3FE JUMPI PUSH1 0xFF SWAP5 SWAP3 DUP3 PUSH2 0x3DC SWAP6 SWAP4 PUSH1 0x2 SWAP4 PUSH32 0x4F91AB7188F04E47CF7377263398321FDA0AD92ECF841895DC7C8445F494049B SWAP13 SWAP14 PUSH1 0x0 SWAP3 PUSH2 0x3F3 JUMPI JUMPDEST POP POP DUP2 PUSH1 0x1 SHL SWAP2 PUSH1 0x0 NOT SWAP1 PUSH1 0x3 SHL SHR NOT AND OR PUSH1 0x1 DUP3 ADD SSTORE JUMPDEST ADD SWAP1 DUP5 PUSH1 0x40 DUP3 ADD MLOAD AND SWAP1 DUP3 SLOAD SWAP2 PUSH2 0xFF00 PUSH1 0x60 DUP4 ADD MLOAD ISZERO ISZERO PUSH1 0x8 SHL AND SWAP2 PUSH1 0x80 PUSH3 0x10000 PUSH1 0x1 PUSH1 0xB0 SHL SUB SWAP2 ADD MLOAD PUSH1 0x10 SHL AND SWAP3 PUSH10 0xFFFFFFFFFFFFFFFFFFFF PUSH1 0xB0 SHL AND OR OR OR SWAP1 SSTORE DUP5 DUP5 AND PUSH1 0x0 MSTORE PUSH1 0x6 PUSH1 0x20 MSTORE PUSH1 0x4 CALLDATALOAD PUSH1 0x40 PUSH1 0x0 KECCAK256 SSTORE PUSH1 0x40 MLOAD SWAP6 PUSH1 0x60 DUP8 MSTORE PUSH1 0x60 DUP8 ADD SWAP2 PUSH2 0x15E6 JUMP JUMPDEST SWAP6 AND PUSH1 0x20 DUP5 ADD MSTORE AND PUSH1 0x40 DUP3 ADD MSTORE DUP1 PUSH1 0x4 CALLDATALOAD SWAP4 SUB SWAP1 LOG2 STOP JUMPDEST ADD MLOAD SWAP1 POP DUP14 DUP1 PUSH2 0x35A JUMP JUMPDEST PUSH1 0x1 DUP4 ADD PUSH1 0x0 MSTORE PUSH1 0x20 PUSH1 0x0 KECCAK256 SWAP10 PUSH1 0x0 JUMPDEST PUSH1 0x1F NOT DUP5 AND DUP2 LT PUSH2 0x481 JUMPI POP SWAP3 PUSH1 0x1 DUP4 PUSH32 0x4F91AB7188F04E47CF7377263398321FDA0AD92ECF841895DC7C8445F494049B SWAP12 SWAP13 PUSH1 0x2 SWAP5 PUSH1 0xFF SWAP10 SWAP8 PUSH2 0x3DC SWAP10 SWAP8 PUSH1 0x1F NOT DUP2 AND LT PUSH2 0x468 JUMPI JUMPDEST POP POP POP DUP2 SHL ADD PUSH1 0x1 DUP3 ADD SSTORE PUSH2 0x372 JUMP JUMPDEST ADD MLOAD PUSH1 0x0 NOT PUSH1 0xF8 DUP5 PUSH1 0x3 SHL AND SHR NOT AND SWAP1 SSTORE DUP14 DUP1 DUP1 PUSH2 0x458 JUMP JUMPDEST DUP3 DUP3 ADD MLOAD DUP13 SSTORE PUSH1 0x1 SWAP1 SWAP12 ADD SWAP11 PUSH1 0x20 SWAP3 DUP4 ADD SWAP3 ADD PUSH2 0x40E JUMP JUMPDEST PUSH1 0x1 DUP4 ADD PUSH1 0x0 MSTORE PUSH1 0x20 PUSH1 0x0 KECCAK256 PUSH1 0x1F DUP4 ADD PUSH1 0x5 SHR DUP2 ADD PUSH1 0x20 DUP5 LT PUSH2 0x4D9 JUMPI JUMPDEST PUSH1 0x1F DUP4 ADD PUSH1 0x5 SHR DUP3 ADD DUP2 LT PUSH2 0x4CD JUMPI POP POP PUSH2 0x314 JUMP JUMPDEST PUSH1 0x0 DUP2 SSTORE PUSH1 0x1 ADD PUSH2 0x4B7 JUMP JUMPDEST POP DUP1 PUSH2 0x4B7 JUMP JUMPDEST PUSH4 0x4E487B71 PUSH1 0xE0 SHL PUSH1 0x0 SWAP1 DUP2 MSTORE PUSH1 0x41 PUSH1 0x4 MSTORE REVERT JUMPDEST DUP9 PUSH4 0x4E487B71 PUSH1 0xE0 SHL PUSH1 0x0 MSTORE PUSH1 0x41 PUSH1 0x4 MSTORE PUSH1 0x0 REVERT JUMPDEST PUSH2 0x7479 PUSH1 0xF0 SHL PUSH1 0x84 SWAP3 PUSH32 0x57616C6C657420616C7265616479206C696E6B656420746F20616E20656E7469 DUP12 SWAP4 PUSH1 0x22 PUSH1 0x40 MLOAD SWAP6 PUSH3 0x461BCD PUSH1 0xE5 SHL DUP8 MSTORE PUSH1 0x20 PUSH1 0x4 DUP9 ADD MSTORE DUP7 ADD MSTORE DUP5 ADD MSTORE DUP3 ADD MSTORE REVERT JUMPDEST PUSH22 0x496E76616C69642077616C6C65742061646472657373 PUSH1 0x50 SHL DUP10 SWAP2 PUSH1 0x16 PUSH1 0x40 MLOAD SWAP4 PUSH3 0x461BCD PUSH1 0xE5 SHL DUP6 MSTORE PUSH1 0x20 PUSH1 0x4 DUP7 ADD MSTORE DUP5 ADD MSTORE DUP3 ADD MSTORE REVERT JUMPDEST PUSH19 0x496E76616C696420656E746974792074797065 PUSH1 0x68 SHL DUP10 SWAP2 PUSH1 0x13 PUSH1 0x40 MLOAD SWAP4 PUSH3 0x461BCD PUSH1 0xE5 SHL DUP6 MSTORE PUSH1 0x20 PUSH1 0x4 DUP7 ADD MSTORE DUP5 ADD MSTORE DUP3 ADD MSTORE REVERT JUMPDEST PUSH32 0x456E7469747920616C7265616479207265676973746572656400000000000000 DUP10 SWAP2 PUSH1 0x19 PUSH1 0x40 MLOAD SWAP4 PUSH3 0x461BCD PUSH1 0xE5 SHL DUP6 MSTORE PUSH1 0x20 PUSH1 0x4 DUP7 ADD MSTORE DUP5 ADD MSTORE DUP3 ADD MSTORE REVERT JUMPDEST PUSH9 0x2737BA1037BBB732B9 PUSH1 0xB9 SHL DUP10 SWAP2 PUSH1 0x9 PUSH1 0x40 MLOAD SWAP4 PUSH3 0x461BCD PUSH1 0xE5 SHL DUP6 MSTORE PUSH1 0x20 PUSH1 0x4 DUP7 ADD MSTORE DUP5 ADD MSTORE DUP3 ADD MSTORE REVERT JUMPDEST CALLVALUE PUSH2 0x13B JUMPI PUSH1 0x20 CALLDATASIZE PUSH1 0x3 NOT ADD SLT PUSH2 0x13B JUMPI PUSH1 0x4 CALLDATALOAD PUSH1 0x0 MSTORE PUSH1 0x3 PUSH1 0x20 MSTORE PUSH1 0x40 PUSH1 0x0 KECCAK256 DUP1 SLOAD PUSH1 0x1 DUP3 ADD SLOAD SWAP2 PUSH2 0x66A PUSH1 0x2 DUP3 ADD PUSH2 0x143D JUMP JUMPDEST PUSH2 0x676 PUSH1 0x3 DUP4 ADD PUSH2 0x143D JUMP JUMPDEST SWAP2 PUSH2 0x6BD PUSH1 0x4 DUP3 ADD SLOAD SWAP4 PUSH2 0x6AF PUSH1 0xFF PUSH1 0x6 PUSH1 0x5 DUP7 ADD SLOAD SWAP6 ADD SLOAD AND SWAP5 PUSH1 0x40 MLOAD SWAP9 DUP10 SWAP9 DUP10 MSTORE PUSH1 0x20 DUP10 ADD MSTORE PUSH1 0xE0 PUSH1 0x40 DUP10 ADD MSTORE PUSH1 0xE0 DUP9 ADD SWAP1 PUSH2 0x14E2 JUMP JUMPDEST SWAP1 DUP7 DUP3 SUB PUSH1 0x60 DUP9 ADD MSTORE PUSH2 0x14E2 JUMP JUMPDEST SWAP3 PUSH1 0x80 DUP6 ADD MSTORE PUSH1 0xA0 DUP5 ADD MSTORE ISZERO ISZERO PUSH1 0xC0 DUP4 ADD MSTORE SUB SWAP1 RETURN JUMPDEST CALLVALUE PUSH2 0x13B JUMPI PUSH1 0x20 DUP1 PUSH1 0x3 NOT CALLDATASIZE ADD SLT PUSH2 0x13B JUMPI PUSH1 0x4 CALLDATALOAD PUSH1 0x0 MSTORE PUSH1 0x4 DUP2 MSTORE PUSH1 0x40 PUSH1 0x0 KECCAK256 SWAP1 DUP2 SLOAD PUSH1 0x1 PUSH1 0x1 PUSH1 0x40 SHL SUB DUP2 GT PUSH2 0x7D6 JUMPI PUSH1 0x40 MLOAD SWAP1 PUSH2 0x718 DUP4 DUP3 PUSH1 0x5 SHL ADD DUP4 PUSH2 0x141C JUMP JUMPDEST DUP1 DUP3 MSTORE DUP3 DUP3 ADD DUP1 SWAP5 PUSH1 0x0 MSTORE DUP4 PUSH1 0x0 KECCAK256 PUSH1 0x0 SWAP2 JUMPDEST DUP4 DUP4 LT PUSH2 0x7B9 JUMPI PUSH1 0x40 DUP1 MLOAD DUP8 DUP2 MSTORE DUP7 MLOAD DUP2 DUP10 ADD DUP2 SWAP1 MSTORE DUP10 SWAP3 DUP3 ADD SWAP1 DUP10 PUSH1 0x0 JUMPDEST DUP3 DUP2 LT PUSH2 0x757 JUMPI DUP5 DUP5 SUB DUP6 RETURN JUMPDEST DUP6 MLOAD DUP1 MLOAD DUP6 MSTORE DUP1 DUP4 ADD MLOAD DUP6 DUP5 ADD MSTORE PUSH1 0x40 DUP1 DUP3 ADD MLOAD SWAP1 DUP7 ADD MSTORE PUSH1 0x60 DUP1 DUP3 ADD MLOAD SWAP1 DUP7 ADD MSTORE PUSH1 0x80 DUP1 DUP3 ADD MLOAD SWAP1 DUP7 ADD MSTORE PUSH1 0xA0 DUP1 DUP3 ADD MLOAD PUSH1 0xFF AND SWAP1 DUP7 ADD MSTORE PUSH1 0xC0 DUP1 DUP3 ADD MLOAD SWAP1 DUP7 ADD MSTORE PUSH1 0xE0 SWAP1 DUP2 ADD MLOAD ISZERO ISZERO SWAP1 DUP6 ADD MSTORE SWAP5 DUP2 ADD SWAP5 PUSH2 0x100 SWAP1 SWAP4 ADD SWAP3 PUSH1 0x1 ADD PUSH2 0x74A JUMP JUMPDEST PUSH1 0x8 DUP7 PUSH1 0x1 SWAP3 PUSH2 0x7C8 DUP6 PUSH2 0x1607 JUMP JUMPDEST DUP2 MSTORE ADD SWAP3 ADD SWAP3 ADD SWAP2 SWAP1 PUSH2 0x72B JUMP JUMPDEST PUSH4 0x4E487B71 PUSH1 0xE0 SHL PUSH1 0x0 MSTORE PUSH1 0x41 PUSH1 0x4 MSTORE PUSH1 0x24 PUSH1 0x0 REVERT JUMPDEST CALLVALUE PUSH2 0x13B JUMPI PUSH1 0x0 CALLDATASIZE PUSH1 0x3 NOT ADD SLT PUSH2 0x13B JUMPI PUSH1 0x0 SLOAD PUSH1 0x40 MLOAD PUSH1 0x1 PUSH1 0x1 PUSH1 0xA0 SHL SUB SWAP1 SWAP2 AND DUP2 MSTORE PUSH1 0x20 SWAP1 RETURN JUMPDEST CALLVALUE PUSH2 0x13B JUMPI PUSH1 0x20 CALLDATASIZE PUSH1 0x3 NOT ADD SLT PUSH2 0x13B JUMPI PUSH1 0x4 CALLDATALOAD PUSH1 0x1 PUSH1 0x1 PUSH1 0xA0 SHL SUB DUP2 AND SWAP1 DUP2 SWAP1 SUB PUSH2 0x13B JUMPI PUSH1 0x0 MSTORE PUSH1 0x6 PUSH1 0x20 MSTORE PUSH1 0x20 PUSH1 0x40 PUSH1 0x0 KECCAK256 SLOAD PUSH1 0x40 MLOAD SWAP1 DUP2 MSTORE RETURN JUMPDEST CALLVALUE PUSH2 0x13B JUMPI PUSH1 0x20 CALLDATASIZE PUSH1 0x3 NOT ADD SLT PUSH2 0x13B JUMPI PUSH1 0x60 PUSH2 0x871 PUSH1 0x4 CALLDATALOAD PUSH2 0x1668 JUMP JUMPDEST SWAP1 PUSH1 0x40 MLOAD SWAP3 ISZERO ISZERO DUP4 MSTORE PUSH1 0x20 DUP4 ADD MSTORE PUSH1 0x40 DUP3 ADD MSTORE RETURN JUMPDEST CALLVALUE PUSH2 0x13B JUMPI PUSH2 0x100 CALLDATASIZE PUSH1 0x3 NOT ADD SLT PUSH2 0x13B JUMPI PUSH1 0x84 CALLDATALOAD PUSH1 0xFF DUP2 AND DUP2 SUB PUSH2 0x13B JUMPI PUSH1 0x1 PUSH1 0x1 PUSH1 0x40 SHL SUB PUSH1 0xC4 CALLDATALOAD DUP2 DUP2 GT PUSH2 0x13B JUMPI PUSH2 0x8C5 SWAP1 CALLDATASIZE SWAP1 PUSH1 0x4 ADD PUSH2 0x1396 JUMP JUMPDEST SWAP1 SWAP2 PUSH1 0xE4 CALLDATALOAD SWAP1 DUP2 GT PUSH2 0x13B JUMPI PUSH2 0x8DF SWAP1 CALLDATASIZE SWAP1 PUSH1 0x4 ADD PUSH2 0x1396 JUMP JUMPDEST CALLER PUSH1 0x0 MSTORE PUSH1 0x6 PUSH1 0x20 MSTORE PUSH1 0x40 PUSH1 0x0 KECCAK256 SLOAD PUSH1 0x0 MSTORE PUSH1 0x2 PUSH1 0x20 MSTORE PUSH2 0x90D PUSH1 0xFF PUSH1 0x2 PUSH1 0x40 PUSH1 0x0 KECCAK256 ADD SLOAD PUSH1 0x8 SHR AND PUSH2 0x1554 JUMP JUMPDEST PUSH1 0x4 CALLDATALOAD PUSH1 0x0 MSTORE PUSH1 0x3 PUSH1 0x20 MSTORE PUSH1 0xFF PUSH1 0x6 PUSH1 0x40 PUSH1 0x0 KECCAK256 ADD SLOAD AND ISZERO PUSH2 0xE46 JUMPI PUSH1 0x24 CALLDATALOAD PUSH1 0x0 MSTORE PUSH1 0x2 PUSH1 0x20 MSTORE PUSH1 0xFF PUSH1 0x2 PUSH1 0x40 PUSH1 0x0 KECCAK256 ADD SLOAD PUSH1 0x8 SHR AND ISZERO PUSH2 0xE01 JUMPI PUSH1 0x44 CALLDATALOAD PUSH1 0x0 MSTORE PUSH1 0x5 PUSH1 0x20 MSTORE PUSH1 0xFF PUSH1 0x40 PUSH1 0x0 KECCAK256 SLOAD AND PUSH2 0xDC7 JUMPI PUSH1 0x1 SLOAD PUSH1 0x40 MLOAD PUSH4 0xAE1C5C7D PUSH1 0xE0 SHL DUP2 MSTORE PUSH1 0xA4 CALLDATALOAD PUSH1 0x4 DUP3 ADD MSTORE PUSH1 0x44 DUP1 CALLDATALOAD PUSH1 0x24 DUP4 ADD MSTORE PUSH1 0x80 SWAP1 DUP3 ADD MSTORE PUSH1 0x84 DUP2 ADD DUP6 SWAP1 MSTORE SWAP5 PUSH1 0x1 PUSH1 0x1 PUSH1 0xA0 SHL SUB SWAP1 SWAP2 AND SWAP4 SWAP1 PUSH1 0x1 PUSH1 0x1 PUSH1 0xFB SHL SUB DUP3 GT PUSH2 0x13B JUMPI PUSH1 0xC4 SWAP1 DUP7 SWAP5 SWAP4 SWAP3 PUSH1 0x5 SHL DUP1 SWAP2 PUSH1 0xA4 DUP8 ADD CALLDATACOPY DUP5 ADD DUP3 PUSH1 0xA4 DUP3 ADD PUSH1 0xA0 DUP8 DUP5 SUB ADD PUSH1 0x64 DUP9 ADD MSTORE MSTORE ADD SWAP2 SWAP1 PUSH1 0x0 SWAP1 JUMPDEST DUP1 DUP3 LT PUSH2 0xD9E JUMPI POP POP POP SWAP2 DUP2 DUP1 PUSH1 0x20 SWAP5 SUB SWAP2 GAS STATICCALL SWAP1 DUP2 ISZERO PUSH2 0xD92 JUMPI PUSH1 0x0 SWAP2 PUSH2 0xD57 JUMPI JUMPDEST POP ISZERO PUSH2 0xD12 JUMPI CALLER PUSH1 0x0 MSTORE PUSH1 0x6 PUSH1 0x20 MSTORE PUSH1 0x40 PUSH1 0x0 KECCAK256 SLOAD PUSH1 0x4 CALLDATALOAD PUSH1 0x0 MSTORE PUSH1 0x4 PUSH1 0x20 MSTORE PUSH1 0x40 PUSH1 0x0 KECCAK256 SLOAD DUP1 ISZERO ISZERO PUSH1 0x0 EQ PUSH2 0xCA7 JUMPI PUSH1 0x4 CALLDATALOAD PUSH1 0x0 MSTORE PUSH1 0x4 PUSH1 0x20 MSTORE PUSH1 0x40 PUSH1 0x0 KECCAK256 PUSH1 0x0 NOT DUP3 ADD SWAP2 DUP3 GT PUSH2 0xC91 JUMPI PUSH2 0xA57 SWAP2 PUSH2 0xA51 SWAP2 PUSH2 0x1522 JUMP JUMPDEST POP PUSH2 0x1607 JUMP JUMPDEST DUP2 PUSH1 0x20 DUP3 ADD MLOAD SUB PUSH2 0xC4C JUMPI PUSH1 0xA0 PUSH1 0xFF SWAP2 ADD MLOAD AND PUSH1 0xFF DUP4 AND GT ISZERO PUSH2 0xC07 JUMPI JUMPDEST PUSH1 0x40 MLOAD PUSH2 0xA81 DUP2 PUSH2 0x1400 JUMP JUMPDEST DUP2 DUP2 MSTORE PUSH1 0x24 CALLDATALOAD PUSH1 0x20 DUP3 ADD MSTORE PUSH1 0x4 CALLDATALOAD PUSH1 0x40 DUP3 ADD MSTORE PUSH1 0x44 CALLDATALOAD PUSH1 0x60 DUP3 ADD MSTORE PUSH1 0x64 CALLDATALOAD PUSH1 0x80 DUP3 ADD MSTORE PUSH1 0xFF DUP4 AND PUSH1 0xA0 DUP3 ADD MSTORE TIMESTAMP PUSH1 0xC0 DUP3 ADD MSTORE PUSH1 0x1 PUSH1 0xE0 DUP3 ADD MSTORE PUSH1 0x4 CALLDATALOAD PUSH1 0x0 MSTORE PUSH1 0x4 PUSH1 0x20 MSTORE PUSH1 0x40 PUSH1 0x0 KECCAK256 DUP1 SLOAD PUSH9 0x10000000000000000 DUP2 LT ISZERO PUSH2 0x7D6 JUMPI PUSH2 0xAEC SWAP2 PUSH1 0x1 DUP3 ADD DUP2 SSTORE PUSH2 0x1522 JUMP JUMPDEST PUSH2 0xBF1 JUMPI PUSH2 0xB5E SWAP1 DUP3 MLOAD DUP2 SSTORE PUSH1 0x20 DUP4 ADD MLOAD PUSH1 0x1 DUP3 ADD SSTORE PUSH1 0x40 DUP4 ADD MLOAD PUSH1 0x2 DUP3 ADD SSTORE PUSH1 0x60 DUP4 ADD MLOAD PUSH1 0x3 DUP3 ADD SSTORE PUSH1 0x80 DUP4 ADD MLOAD PUSH1 0x4 DUP3 ADD SSTORE PUSH1 0x7 PUSH1 0xE0 PUSH1 0x5 DUP4 ADD SWAP5 PUSH1 0xFF PUSH1 0xA0 DUP3 ADD MLOAD AND SWAP6 PUSH1 0xFF NOT SWAP7 DUP8 DUP3 SLOAD AND OR SWAP1 SSTORE PUSH1 0xC0 DUP2 ADD MLOAD PUSH1 0x6 DUP6 ADD SSTORE ADD MLOAD ISZERO ISZERO SWAP2 ADD SWAP1 PUSH1 0xFF DUP1 NOT DUP4 SLOAD AND SWAP2 ISZERO ISZERO AND OR SWAP1 SSTORE JUMP JUMPDEST PUSH1 0x44 CALLDATALOAD PUSH1 0x0 MSTORE PUSH1 0x5 PUSH1 0x20 MSTORE PUSH1 0x1 PUSH1 0x40 PUSH1 0x0 KECCAK256 SWAP2 DUP3 SLOAD AND OR SWAP1 SSTORE PUSH1 0x40 MLOAD SWAP1 DUP2 MSTORE PUSH1 0x24 CALLDATALOAD PUSH1 0x20 DUP3 ADD MSTORE PUSH1 0xFF DUP3 AND PUSH1 0x40 DUP3 ADD MSTORE PUSH32 0x5C18E5EA02909AB7F26024A3BDEDCD64C5A7FB15E48C11F2231B193CC73BED99 PUSH1 0x60 PUSH1 0x4 CALLDATALOAD SWAP3 LOG2 PUSH1 0xFF PUSH1 0x40 MLOAD SWAP2 PUSH1 0x44 CALLDATALOAD DUP4 MSTORE AND PUSH1 0x20 DUP3 ADD MSTORE PUSH32 0xDC405C52B0A2758EAE9D37E1E149D235AE3569CC618A86D327A8CF0E8F7B0ADD PUSH1 0x40 PUSH1 0x4 CALLDATALOAD SWAP3 LOG2 STOP JUMPDEST PUSH4 0x4E487B71 PUSH1 0xE0 SHL PUSH1 0x0 MSTORE PUSH1 0x0 PUSH1 0x4 MSTORE PUSH1 0x24 PUSH1 0x0 REVERT JUMPDEST PUSH1 0x40 MLOAD PUSH3 0x461BCD PUSH1 0xE5 SHL DUP2 MSTORE PUSH1 0x20 PUSH1 0x4 DUP3 ADD MSTORE PUSH1 0x1E PUSH1 0x24 DUP3 ADD MSTORE PUSH32 0x496E76616C696420636861696E20737465702070726F6772657373696F6E0000 PUSH1 0x44 DUP3 ADD MSTORE PUSH1 0x64 SWAP1 REVERT JUMPDEST PUSH1 0x40 MLOAD PUSH3 0x461BCD PUSH1 0xE5 SHL DUP2 MSTORE PUSH1 0x20 PUSH1 0x4 DUP3 ADD MSTORE PUSH1 0x19 PUSH1 0x24 DUP3 ADD MSTORE PUSH32 0x4E6F74207468652063757272656E7420637573746F6469616E00000000000000 PUSH1 0x44 DUP3 ADD MSTORE PUSH1 0x64 SWAP1 REVERT JUMPDEST PUSH4 0x4E487B71 PUSH1 0xE0 SHL PUSH1 0x0 MSTORE PUSH1 0x11 PUSH1 0x4 MSTORE PUSH1 0x24 PUSH1 0x0 REVERT JUMPDEST POP PUSH1 0x3 PUSH1 0x20 MSTORE PUSH1 0x40 PUSH1 0x0 KECCAK256 PUSH1 0x1 ADD SLOAD DUP2 EQ PUSH2 0xA75 JUMPI PUSH1 0x40 MLOAD PUSH3 0x461BCD PUSH1 0xE5 SHL DUP2 MSTORE PUSH1 0x20 PUSH1 0x4 DUP3 ADD MSTORE PUSH1 0x28 PUSH1 0x24 DUP3 ADD MSTORE PUSH32 0x4669727374207472616E73666572206D7573742062652066726F6D206D616E75 PUSH1 0x44 DUP3 ADD MSTORE PUSH8 0x3330B1BA3AB932B9 PUSH1 0xC1 SHL PUSH1 0x64 DUP3 ADD MSTORE PUSH1 0x84 SWAP1 REVERT JUMPDEST PUSH1 0x40 MLOAD PUSH3 0x461BCD PUSH1 0xE5 SHL DUP2 MSTORE PUSH1 0x20 PUSH1 0x4 DUP3 ADD MSTORE PUSH1 0x1B PUSH1 0x24 DUP3 ADD MSTORE PUSH32 0x5A4B2050726F6F66204174746573746174696F6E206661696C65640000000000 PUSH1 0x44 DUP3 ADD MSTORE PUSH1 0x64 SWAP1 REVERT JUMPDEST SWAP1 POP PUSH1 0x20 DUP2 RETURNDATASIZE PUSH1 0x20 GT PUSH2 0xD8A JUMPI JUMPDEST DUP2 PUSH2 0xD72 PUSH1 0x20 SWAP4 DUP4 PUSH2 0x141C JUMP JUMPDEST DUP2 ADD SUB SLT PUSH2 0x13B JUMPI MLOAD DUP1 ISZERO ISZERO DUP2 SUB PUSH2 0x13B JUMPI DUP3 PUSH2 0x9F8 JUMP JUMPDEST RETURNDATASIZE SWAP2 POP PUSH2 0xD65 JUMP JUMPDEST PUSH1 0x40 MLOAD RETURNDATASIZE PUSH1 0x0 DUP3 RETURNDATACOPY RETURNDATASIZE SWAP1 REVERT JUMPDEST SWAP2 SWAP4 POP SWAP2 DUP4 CALLDATALOAD DUP1 ISZERO ISZERO SWAP2 SWAP1 DUP3 SWAP1 SUB PUSH2 0x13B JUMPI PUSH1 0x20 DUP2 PUSH1 0x1 SWAP4 DUP3 SWAP4 MSTORE ADD SWAP5 ADD SWAP3 ADD DUP6 SWAP4 SWAP3 SWAP2 PUSH2 0x9D5 JUMP JUMPDEST PUSH1 0x40 MLOAD PUSH3 0x461BCD PUSH1 0xE5 SHL DUP2 MSTORE PUSH1 0x20 PUSH1 0x4 DUP3 ADD MSTORE PUSH1 0x12 PUSH1 0x24 DUP3 ADD MSTORE PUSH18 0x141C9BDBD988185B1C9958591E481D5CD959 PUSH1 0x72 SHL PUSH1 0x44 DUP3 ADD MSTORE PUSH1 0x64 SWAP1 REVERT JUMPDEST PUSH1 0x40 MLOAD PUSH3 0x461BCD PUSH1 0xE5 SHL DUP2 MSTORE PUSH1 0x20 PUSH1 0x4 DUP3 ADD MSTORE PUSH1 0x1B PUSH1 0x24 DUP3 ADD MSTORE PUSH32 0x526563656976696E6720656E74697479206E6F74206163746976650000000000 PUSH1 0x44 DUP3 ADD MSTORE PUSH1 0x64 SWAP1 REVERT JUMPDEST PUSH1 0x40 MLOAD PUSH3 0x461BCD PUSH1 0xE5 SHL DUP2 MSTORE PUSH1 0x20 PUSH1 0x4 DUP3 ADD MSTORE PUSH1 0x10 PUSH1 0x24 DUP3 ADD MSTORE PUSH16 0x4261746368206E6F7420616374697665 PUSH1 0x80 SHL PUSH1 0x44 DUP3 ADD MSTORE PUSH1 0x64 SWAP1 REVERT JUMPDEST CALLVALUE PUSH2 0x13B JUMPI PUSH1 0x80 CALLDATASIZE PUSH1 0x3 NOT ADD SLT PUSH2 0x13B JUMPI PUSH1 0x24 CALLDATALOAD PUSH1 0x1 PUSH1 0x1 PUSH1 0x40 SHL SUB DUP2 GT PUSH2 0x13B JUMPI PUSH2 0xEAE SWAP1 CALLDATASIZE SWAP1 PUSH1 0x4 ADD PUSH2 0x1369 JUMP JUMPDEST PUSH1 0x44 CALLDATALOAD PUSH1 0x1 PUSH1 0x1 PUSH1 0x40 SHL SUB DUP2 GT PUSH2 0x13B JUMPI PUSH2 0xECD SWAP1 CALLDATASIZE SWAP1 PUSH1 0x4 ADD PUSH2 0x1369 JUMP JUMPDEST SWAP3 SWAP1 CALLER PUSH1 0x0 MSTORE PUSH1 0x6 PUSH1 0x20 MSTORE PUSH1 0x40 PUSH1 0x0 KECCAK256 SLOAD PUSH1 0x0 MSTORE PUSH1 0x2 PUSH1 0x20 MSTORE PUSH2 0xEFD PUSH1 0xFF PUSH1 0x2 PUSH1 0x40 PUSH1 0x0 KECCAK256 ADD SLOAD PUSH1 0x8 SHR AND PUSH2 0x1554 JUMP JUMPDEST CALLER PUSH1 0x0 MSTORE PUSH1 0x6 PUSH1 0x20 MSTORE PUSH1 0x40 PUSH1 0x0 KECCAK256 SLOAD SWAP1 DUP2 PUSH1 0x0 MSTORE PUSH1 0x2 PUSH1 0x20 MSTORE PUSH1 0xFF PUSH1 0x2 PUSH1 0x40 PUSH1 0x0 KECCAK256 ADD SLOAD AND PUSH2 0x12E7 JUMPI PUSH1 0x4 CALLDATALOAD PUSH1 0x0 MSTORE PUSH1 0x3 PUSH1 0x20 MSTORE PUSH1 0xFF PUSH1 0x6 PUSH1 0x40 PUSH1 0x0 KECCAK256 ADD SLOAD AND PUSH2 0x12AB JUMPI PUSH1 0x40 MLOAD SWAP5 PUSH1 0xE0 DUP7 ADD DUP7 DUP2 LT PUSH1 0x1 PUSH1 0x1 PUSH1 0x40 SHL SUB DUP3 GT OR PUSH2 0x7D6 JUMPI PUSH1 0x40 MSTORE PUSH1 0x4 CALLDATALOAD DUP7 MSTORE PUSH2 0xF88 PUSH1 0x20 DUP8 ADD SWAP3 DUP5 DUP5 MSTORE PUSH2 0xF79 CALLDATASIZE DUP9 DUP9 PUSH2 0x15A0 JUMP JUMPDEST SWAP3 PUSH1 0x40 DUP10 ADD SWAP4 DUP5 MSTORE CALLDATASIZE SWAP2 PUSH2 0x15A0 JUMP JUMPDEST PUSH1 0x60 DUP8 ADD MSTORE TIMESTAMP PUSH1 0x80 DUP8 ADD MSTORE PUSH1 0x64 CALLDATALOAD PUSH1 0xA0 DUP8 ADD MSTORE PUSH1 0x1 PUSH1 0xC0 DUP8 ADD MSTORE PUSH1 0x4 CALLDATALOAD PUSH1 0x0 MSTORE PUSH1 0x3 PUSH1 0x20 MSTORE PUSH1 0x40 PUSH1 0x0 KECCAK256 SWAP2 DUP7 MLOAD DUP4 SSTORE MLOAD PUSH1 0x1 DUP4 ADD SSTORE MLOAD DUP1 MLOAD SWAP1 PUSH1 0x1 PUSH1 0x1 PUSH1 0x40 SHL SUB DUP3 GT PUSH2 0x7D6 JUMPI DUP2 SWAP1 PUSH2 0xFDE PUSH1 0x2 DUP6 ADD SLOAD PUSH2 0x13C6 JUMP JUMPDEST PUSH1 0x1F DUP2 GT PUSH2 0x1258 JUMPI JUMPDEST POP PUSH1 0x20 SWAP1 PUSH1 0x1F DUP4 GT PUSH1 0x1 EQ PUSH2 0x11E6 JUMPI PUSH1 0x0 SWAP3 PUSH2 0x11DB JUMPI JUMPDEST POP POP DUP2 PUSH1 0x1 SHL SWAP2 PUSH1 0x0 NOT SWAP1 PUSH1 0x3 SHL SHR NOT AND OR PUSH1 0x2 DUP3 ADD SSTORE JUMPDEST PUSH1 0x60 DUP6 ADD MLOAD SWAP5 DUP6 MLOAD PUSH1 0x1 PUSH1 0x1 PUSH1 0x40 SHL SUB DUP2 GT PUSH2 0x7D6 JUMPI PUSH2 0x1039 PUSH1 0x3 DUP5 ADD SLOAD PUSH2 0x13C6 JUMP JUMPDEST PUSH1 0x1F DUP2 GT PUSH2 0x1194 JUMPI JUMPDEST POP PUSH1 0x20 PUSH1 0x1F DUP3 GT PUSH1 0x1 EQ PUSH2 0x10FA JUMPI PUSH2 0x10CA SWAP4 SWAP3 DUP3 PUSH1 0x6 SWAP4 PUSH1 0xC0 SWAP4 PUSH32 0x91B2522AC0EAF16871AB1BDF545800630347AE398E7F27FA16794512CBB2EC2 SWAP11 SWAP12 PUSH1 0x0 SWAP3 PUSH2 0x10EF JUMPI JUMPDEST POP POP DUP2 PUSH1 0x1 SHL SWAP2 PUSH1 0x0 NOT SWAP1 PUSH1 0x3 SHL SHR NOT AND OR PUSH1 0x3 DUP6 ADD SSTORE JUMPDEST PUSH1 0x80 DUP2 ADD MLOAD PUSH1 0x4 DUP6 ADD SSTORE PUSH1 0xA0 DUP2 ADD MLOAD PUSH1 0x5 DUP6 ADD SSTORE ADD MLOAD ISZERO ISZERO SWAP2 ADD SWAP1 PUSH1 0xFF DUP1 NOT DUP4 SLOAD AND SWAP2 ISZERO ISZERO AND OR SWAP1 SSTORE JUMP JUMPDEST PUSH2 0x10EA PUSH1 0x40 MLOAD SWAP3 DUP4 SWAP3 DUP4 MSTORE PUSH1 0x40 PUSH1 0x20 DUP5 ADD MSTORE PUSH1 0x4 CALLDATALOAD SWAP6 PUSH1 0x40 DUP5 ADD SWAP2 PUSH2 0x15E6 JUMP JUMPDEST SUB SWAP1 LOG2 STOP JUMPDEST ADD MLOAD SWAP1 POP DUP12 DUP1 PUSH2 0x1087 JUMP JUMPDEST PUSH1 0x3 DUP5 ADD PUSH1 0x0 MSTORE PUSH1 0x20 PUSH1 0x0 KECCAK256 SWAP8 PUSH1 0x0 JUMPDEST PUSH1 0x1F NOT DUP5 AND DUP2 LT PUSH2 0x117C JUMPI POP SWAP3 PUSH1 0x1 DUP4 PUSH32 0x91B2522AC0EAF16871AB1BDF545800630347AE398E7F27FA16794512CBB2EC2 SWAP10 SWAP11 PUSH1 0xC0 SWAP5 PUSH2 0x10CA SWAP9 SWAP8 PUSH1 0x6 SWAP8 PUSH1 0x1F NOT DUP2 AND LT PUSH2 0x1163 JUMPI JUMPDEST POP POP POP DUP2 SHL ADD PUSH1 0x3 DUP6 ADD SSTORE PUSH2 0x109F JUMP JUMPDEST ADD MLOAD PUSH1 0x0 NOT PUSH1 0xF8 DUP5 PUSH1 0x3 SHL AND SHR NOT AND SWAP1 SSTORE DUP12 DUP1 DUP1 PUSH2 0x1153 JUMP JUMPDEST DUP3 DUP3 ADD MLOAD DUP11 SSTORE PUSH1 0x1 SWAP1 SWAP10 ADD SWAP9 PUSH1 0x20 SWAP3 DUP4 ADD SWAP3 ADD PUSH2 0x110A JUMP JUMPDEST PUSH1 0x3 DUP5 ADD PUSH1 0x0 MSTORE PUSH1 0x20 PUSH1 0x0 KECCAK256 PUSH1 0x1F DUP4 ADD PUSH1 0x5 SHR DUP2 ADD PUSH1 0x20 DUP5 LT PUSH2 0x11D4 JUMPI JUMPDEST PUSH1 0x1F DUP4 ADD PUSH1 0x5 SHR DUP3 ADD DUP2 LT PUSH2 0x11C8 JUMPI POP POP PUSH2 0x1042 JUMP JUMPDEST PUSH1 0x0 DUP2 SSTORE PUSH1 0x1 ADD PUSH2 0x11B2 JUMP JUMPDEST POP DUP1 PUSH2 0x11B2 JUMP JUMPDEST ADD MLOAD SWAP1 POP DUP8 DUP1 PUSH2 0xFFE JUMP JUMPDEST SWAP3 POP PUSH1 0x2 DUP5 ADD PUSH1 0x0 MSTORE PUSH1 0x20 PUSH1 0x0 KECCAK256 SWAP1 PUSH1 0x0 SWAP4 JUMPDEST PUSH1 0x1F NOT DUP5 AND DUP6 LT PUSH2 0x123D JUMPI PUSH1 0x1 SWAP5 POP DUP4 PUSH1 0x1F NOT DUP2 AND LT PUSH2 0x1224 JUMPI JUMPDEST POP POP POP DUP2 SHL ADD PUSH1 0x2 DUP3 ADD SSTORE PUSH2 0x1016 JUMP JUMPDEST ADD MLOAD PUSH1 0x0 NOT PUSH1 0xF8 DUP5 PUSH1 0x3 SHL AND SHR NOT AND SWAP1 SSTORE DUP8 DUP1 DUP1 PUSH2 0x1214 JUMP JUMPDEST DUP2 DUP2 ADD MLOAD DUP4 SSTORE PUSH1 0x20 SWAP5 DUP6 ADD SWAP5 PUSH1 0x1 SWAP1 SWAP4 ADD SWAP3 SWAP1 SWAP2 ADD SWAP1 PUSH2 0x11F9 JUMP JUMPDEST SWAP1 SWAP2 POP PUSH1 0x2 DUP5 ADD PUSH1 0x0 MSTORE PUSH1 0x20 PUSH1 0x0 KECCAK256 PUSH1 0x1F DUP5 ADD PUSH1 0x5 SHR DUP2 ADD PUSH1 0x20 DUP6 LT PUSH2 0x12A4 JUMPI JUMPDEST SWAP1 DUP5 SWAP4 SWAP3 SWAP2 JUMPDEST PUSH1 0x1F DUP4 ADD PUSH1 0x5 SHR DUP3 ADD DUP2 LT PUSH2 0x1295 JUMPI POP POP PUSH2 0xFE7 JUMP JUMPDEST PUSH1 0x0 DUP2 SSTORE DUP6 SWAP5 POP PUSH1 0x1 ADD PUSH2 0x127F JUMP JUMPDEST POP DUP1 PUSH2 0x1279 JUMP JUMPDEST PUSH1 0x40 MLOAD PUSH3 0x461BCD PUSH1 0xE5 SHL DUP2 MSTORE PUSH1 0x20 PUSH1 0x4 DUP3 ADD MSTORE PUSH1 0x14 PUSH1 0x24 DUP3 ADD MSTORE PUSH20 0x426174636820616C726561647920616374697665 PUSH1 0x60 SHL PUSH1 0x44 DUP3 ADD MSTORE PUSH1 0x64 SWAP1 REVERT JUMPDEST PUSH1 0x40 MLOAD PUSH3 0x461BCD PUSH1 0xE5 SHL DUP2 MSTORE PUSH1 0x20 PUSH1 0x4 DUP3 ADD MSTORE PUSH1 0x27 PUSH1 0x24 DUP3 ADD MSTORE PUSH32 0x4F6E6C79206D616E756661637475726572732063616E20726567697374657220 PUSH1 0x44 DUP3 ADD MSTORE PUSH7 0x62617463686573 PUSH1 0xC8 SHL PUSH1 0x64 DUP3 ADD MSTORE PUSH1 0x84 SWAP1 REVERT JUMPDEST CALLVALUE PUSH2 0x13B JUMPI PUSH1 0x20 CALLDATASIZE PUSH1 0x3 NOT ADD SLT PUSH2 0x13B JUMPI PUSH1 0x20 SWAP1 PUSH1 0x4 CALLDATALOAD PUSH1 0x0 MSTORE PUSH1 0x5 DUP3 MSTORE PUSH1 0xFF PUSH1 0x40 PUSH1 0x0 KECCAK256 SLOAD AND ISZERO ISZERO DUP2 MSTORE RETURN JUMPDEST SWAP2 DUP2 PUSH1 0x1F DUP5 ADD SLT ISZERO PUSH2 0x13B JUMPI DUP3 CALLDATALOAD SWAP2 PUSH1 0x1 PUSH1 0x1 PUSH1 0x40 SHL SUB DUP4 GT PUSH2 0x13B JUMPI PUSH1 0x20 DUP4 DUP2 DUP7 ADD SWAP6 ADD ADD GT PUSH2 0x13B JUMPI JUMP JUMPDEST SWAP2 DUP2 PUSH1 0x1F DUP5 ADD SLT ISZERO PUSH2 0x13B JUMPI DUP3 CALLDATALOAD SWAP2 PUSH1 0x1 PUSH1 0x1 PUSH1 0x40 SHL SUB DUP4 GT PUSH2 0x13B JUMPI PUSH1 0x20 DUP1 DUP6 ADD SWAP5 DUP5 PUSH1 0x5 SHL ADD ADD GT PUSH2 0x13B JUMPI JUMP JUMPDEST SWAP1 PUSH1 0x1 DUP3 DUP2 SHR SWAP3 AND DUP1 ISZERO PUSH2 0x13F6 JUMPI JUMPDEST PUSH1 0x20 DUP4 LT EQ PUSH2 0x13E0 JUMPI JUMP JUMPDEST PUSH4 0x4E487B71 PUSH1 0xE0 SHL PUSH1 0x0 MSTORE PUSH1 0x22 PUSH1 0x4 MSTORE PUSH1 0x24 PUSH1 0x0 REVERT JUMPDEST SWAP2 PUSH1 0x7F AND SWAP2 PUSH2 0x13D5 JUMP JUMPDEST PUSH2 0x100 DUP2 ADD SWAP1 DUP2 LT PUSH1 0x1 PUSH1 0x1 PUSH1 0x40 SHL SUB DUP3 GT OR PUSH2 0x7D6 JUMPI PUSH1 0x40 MSTORE JUMP JUMPDEST SWAP1 PUSH1 0x1F DUP1 NOT SWAP2 ADD AND DUP2 ADD SWAP1 DUP2 LT PUSH1 0x1 PUSH1 0x1 PUSH1 0x40 SHL SUB DUP3 GT OR PUSH2 0x7D6 JUMPI PUSH1 0x40 MSTORE JUMP JUMPDEST SWAP1 PUSH1 0x40 MLOAD SWAP2 DUP3 PUSH1 0x0 DUP3 SLOAD PUSH2 0x1450 DUP2 PUSH2 0x13C6 JUMP JUMPDEST SWAP1 DUP2 DUP5 MSTORE PUSH1 0x20 SWAP5 PUSH1 0x1 SWAP2 PUSH1 0x1 DUP2 AND SWAP1 DUP2 PUSH1 0x0 EQ PUSH2 0x14C0 JUMPI POP PUSH1 0x1 EQ PUSH2 0x1481 JUMPI JUMPDEST POP POP POP PUSH2 0x147F SWAP3 POP SUB DUP4 PUSH2 0x141C JUMP JUMPDEST JUMP JUMPDEST PUSH1 0x0 SWAP1 DUP2 MSTORE DUP6 DUP2 KECCAK256 SWAP6 SWAP4 POP SWAP2 SWAP1 JUMPDEST DUP2 DUP4 LT PUSH2 0x14A8 JUMPI POP POP PUSH2 0x147F SWAP4 POP DUP3 ADD ADD CODESIZE DUP1 DUP1 PUSH2 0x1470 JUMP JUMPDEST DUP6 SLOAD DUP9 DUP5 ADD DUP6 ADD MSTORE SWAP5 DUP6 ADD SWAP5 DUP8 SWAP5 POP SWAP2 DUP4 ADD SWAP2 PUSH2 0x148F JUMP JUMPDEST SWAP3 POP POP POP PUSH2 0x147F SWAP5 SWAP3 POP PUSH1 0xFF NOT AND DUP3 DUP5 ADD MSTORE ISZERO ISZERO PUSH1 0x5 SHL DUP3 ADD ADD CODESIZE DUP1 DUP1 PUSH2 0x1470 JUMP JUMPDEST SWAP2 SWAP1 DUP3 MLOAD SWAP3 DUP4 DUP3 MSTORE PUSH1 0x0 JUMPDEST DUP5 DUP2 LT PUSH2 0x150E JUMPI POP POP DUP3 PUSH1 0x0 PUSH1 0x20 DUP1 SWAP5 SWAP6 DUP5 ADD ADD MSTORE PUSH1 0x1F DUP1 NOT SWAP2 ADD AND ADD ADD SWAP1 JUMP JUMPDEST PUSH1 0x20 DUP2 DUP4 ADD DUP2 ADD MLOAD DUP5 DUP4 ADD DUP3 ADD MSTORE ADD PUSH2 0x14ED JUMP JUMPDEST DUP1 SLOAD DUP3 LT ISZERO PUSH2 0x153E JUMPI PUSH1 0x0 MSTORE PUSH1 0x20 PUSH1 0x0 KECCAK256 SWAP1 PUSH1 0x3 SHL ADD SWAP1 PUSH1 0x0 SWAP1 JUMP JUMPDEST PUSH4 0x4E487B71 PUSH1 0xE0 SHL PUSH1 0x0 MSTORE PUSH1 0x32 PUSH1 0x4 MSTORE PUSH1 0x24 PUSH1 0x0 REVERT JUMPDEST ISZERO PUSH2 0x155B JUMPI JUMP JUMPDEST PUSH1 0x40 MLOAD PUSH3 0x461BCD PUSH1 0xE5 SHL DUP2 MSTORE PUSH1 0x20 PUSH1 0x4 DUP3 ADD MSTORE PUSH1 0x1E PUSH1 0x24 DUP3 ADD MSTORE PUSH32 0x43616C6C6572206973206E6F7420616E2061637469766520656E746974790000 PUSH1 0x44 DUP3 ADD MSTORE PUSH1 0x64 SWAP1 REVERT JUMPDEST SWAP3 SWAP2 SWAP3 PUSH1 0x1 PUSH1 0x1 PUSH1 0x40 SHL SUB DUP3 GT PUSH2 0x7D6 JUMPI PUSH1 0x40 MLOAD SWAP2 PUSH2 0x15C9 PUSH1 0x1F DUP3 ADD PUSH1 0x1F NOT AND PUSH1 0x20 ADD DUP5 PUSH2 0x141C JUMP JUMPDEST DUP3 SWAP5 DUP2 DUP5 MSTORE DUP2 DUP4 ADD GT PUSH2 0x13B JUMPI DUP3 DUP2 PUSH1 0x20 SWAP4 DUP5 PUSH1 0x0 SWAP7 ADD CALLDATACOPY ADD ADD MSTORE JUMP JUMPDEST SWAP1 DUP1 PUSH1 0x20 SWAP4 SWAP3 DUP2 DUP5 MSTORE DUP5 DUP5 ADD CALLDATACOPY PUSH1 0x0 DUP3 DUP3 ADD DUP5 ADD MSTORE PUSH1 0x1F ADD PUSH1 0x1F NOT AND ADD ADD SWAP1 JUMP JUMPDEST SWAP1 PUSH1 0x40 MLOAD PUSH2 0x1614 DUP2 PUSH2 0x1400 JUMP JUMPDEST PUSH1 0xE0 PUSH1 0xFF PUSH1 0x7 DUP4 SWAP6 DUP1 SLOAD DUP6 MSTORE PUSH1 0x1 DUP2 ADD SLOAD PUSH1 0x20 DUP7 ADD MSTORE PUSH1 0x2 DUP2 ADD SLOAD PUSH1 0x40 DUP7 ADD MSTORE PUSH1 0x3 DUP2 ADD SLOAD PUSH1 0x60 DUP7 ADD MSTORE PUSH1 0x4 DUP2 ADD SLOAD PUSH1 0x80 DUP7 ADD MSTORE DUP3 PUSH1 0x5 DUP3 ADD SLOAD AND PUSH1 0xA0 DUP7 ADD MSTORE PUSH1 0x6 DUP2 ADD SLOAD PUSH1 0xC0 DUP7 ADD MSTORE ADD SLOAD AND ISZERO ISZERO SWAP2 ADD MSTORE JUMP JUMPDEST PUSH1 0x0 SWAP1 DUP1 DUP3 MSTORE PUSH1 0x20 SWAP1 PUSH1 0x3 DUP3 MSTORE PUSH1 0xFF PUSH1 0x6 PUSH1 0x40 DUP6 KECCAK256 ADD SLOAD AND ISZERO PUSH2 0x178B JUMPI DUP3 MSTORE PUSH1 0x4 DUP2 MSTORE PUSH1 0x40 DUP3 KECCAK256 SWAP2 DUP3 SLOAD PUSH1 0x1 PUSH1 0x1 PUSH1 0x40 SHL SUB DUP2 GT PUSH2 0x1777 JUMPI PUSH1 0x40 MLOAD SWAP4 PUSH2 0x16B3 DUP5 DUP4 PUSH1 0x5 SHL ADD DUP7 PUSH2 0x141C JUMP JUMPDEST DUP2 DUP6 MSTORE DUP3 MSTORE DUP3 DUP3 KECCAK256 DUP3 SWAP1 DUP5 DUP1 DUP8 ADD JUMPDEST DUP5 DUP5 LT PUSH2 0x1758 JUMPI POP POP POP POP POP DUP3 MLOAD SWAP3 DUP4 ISZERO PUSH2 0x174E JUMPI PUSH1 0x0 NOT DUP5 ADD DUP5 DUP2 GT PUSH2 0x173A JUMPI DUP2 MLOAD DUP2 LT ISZERO PUSH2 0x1726 JUMPI PUSH1 0x2 PUSH1 0x40 DUP6 PUSH1 0x3 SWAP5 PUSH1 0xFF SWAP5 PUSH1 0x5 SHL ADD ADD MLOAD SWAP5 DUP3 PUSH1 0xC0 DUP8 ADD MLOAD SWAP8 DUP1 DUP9 ADD MLOAD DUP4 MSTORE MSTORE KECCAK256 ADD SLOAD AND EQ SWAP1 DUP2 PUSH2 0x171B JUMPI POP SWAP3 JUMP JUMPDEST PUSH1 0xE0 SWAP2 POP ADD MLOAD ISZERO ISZERO SWAP3 JUMP JUMPDEST PUSH4 0x4E487B71 PUSH1 0xE0 SHL DUP4 MSTORE PUSH1 0x32 PUSH1 0x4 MSTORE PUSH1 0x24 DUP4 REVERT JUMPDEST PUSH4 0x4E487B71 PUSH1 0xE0 SHL DUP4 MSTORE PUSH1 0x11 PUSH1 0x4 MSTORE PUSH1 0x24 DUP4 REVERT JUMPDEST POP SWAP2 POP POP DUP1 SWAP2 DUP2 SWAP1 JUMP JUMPDEST PUSH1 0x1 SWAP2 PUSH1 0x8 SWAP2 PUSH2 0x1767 DUP6 PUSH2 0x1607 JUMP JUMPDEST DUP2 MSTORE ADD SWAP3 ADD SWAP3 ADD SWAP2 SWAP1 DUP6 SWAP1 PUSH2 0x16C2 JUMP JUMPDEST PUSH4 0x4E487B71 PUSH1 0xE0 SHL DUP3 MSTORE PUSH1 0x41 PUSH1 0x4 MSTORE PUSH1 0x24 DUP3 REVERT JUMPDEST PUSH1 0x40 MLOAD PUSH3 0x461BCD PUSH1 0xE5 SHL DUP2 MSTORE PUSH1 0x4 DUP2 ADD DUP4 SWAP1 MSTORE PUSH1 0x16 PUSH1 0x24 DUP3 ADD MSTORE PUSH22 0x4261746368206E6F7420666F756E642F616374697665 PUSH1 0x50 SHL PUSH1 0x44 DUP3 ADD MSTORE PUSH1 0x64 SWAP1 REVERT INVALID LOG2 PUSH5 0x6970667358 0x22 SLT KECCAK256 PUSH32 0xBA77799B266CB534DCC98F8E01832BC8988DAC016BD16A93C1B91FB85F3FFD64 PUSH20 0x6F6C634300081800330000000000000000000000 "},"methodIdentifiers":{"batches(bytes32)":"c81e25ab","custodyChain(bytes32,uint256)":"fbf888da","entities(bytes32)":"e5b338fd","getFullCustodyChain(bytes32)":"9cc368b9","owner()":"8da5cb5b","recordCustodyTransfer(bytes32,bytes32,bytes32,bytes32,uint8,uint256,bytes32[],bool[])":"63bc416f","registerBatch(bytes32,string,string,uint256)":"5a107982","registerEntity(bytes32,string,uint8,address)":"e55c3b5a","verifiedProofs(bytes32)":"176d80c4","verifyBatchAtPharmacy(bytes32)":"692d771e","walletToEntity(address)":"83d06421","zkVerifyProxy()":"ea303ab4"}}}}}