{
  "_format": "hh-sol-artifact-1",
  "contractName": "DrugChainRegistry",
  "sourceName": "contracts/DrugChainRegistry.sol",
  "abi": [
    {
      "inputs": [
        {
          "internalType": "address",
          "name": "_zkVerifyProxy",
          "type": "address"
        }
      ],
      "stateMutability": "nonpayable",
      "type": "constructor"
    },
    {
      "anonymous": false,
      "inputs": [
        {
          "indexed": true,
          "internalType": "bytes32",
          "name": "batchId",
          "type": "bytes32"
        },
        {
          "indexed": false,
          "internalType": "string",
          "name": "reason",
          "type": "string"
        }
      ],
      "name": "BatchFlaggedSuspicious",
      "type": "event"
    },
    {
      "anonymous": false,
      "inputs": [
        {
          "indexed": true,
          "internalType": "bytes32",
          "name": "batchId",
          "type": "bytes32"
        },
        {
          "indexed": false,
          "internalType": "bytes32",
          "name": "manufacturerHash",
          "type": "bytes32"
        },
        {
          "indexed": false,
          "internalType": "string",
          "name": "drugName",
          "type": "string"
        }
      ],
      "name": "BatchRegistered",
      "type": "event"
    },
    {
      "anonymous": false,
      "inputs": [
        {
          "indexed": true,
          "internalType": "bytes32",
          "name": "batchId",
          "type": "bytes32"
        },
        {
          "indexed": false,
          "internalType": "bytes32",
          "name": "from",
          "type": "bytes32"
        },
        {
          "indexed": false,
          "internalType": "bytes32",
          "name": "to",
          "type": "bytes32"
        },
        {
          "indexed": false,
          "internalType": "uint8",
          "name": "chainStep",
          "type": "uint8"
        }
      ],
      "name": "CustodyTransferred",
      "type": "event"
    },
    {
      "anonymous": false,
      "inputs": [
        {
          "indexed": true,
          "internalType": "bytes32",
          "name": "batchId",
          "type": "bytes32"
        },
        {
          "indexed": false,
          "internalType": "bytes32",
          "name": "zkProofLeafDigest",
          "type": "bytes32"
        },
        {
          "indexed": false,
          "internalType": "uint8",
          "name": "chainStep",
          "type": "uint8"
        }
      ],
      "name": "CustodyVerified",
      "type": "event"
    },
    {
      "anonymous": false,
      "inputs": [
        {
          "indexed": true,
          "internalType": "bytes32",
          "name": "entityIdHash",
          "type": "bytes32"
        },
        {
          "indexed": false,
          "internalType": "string",
          "name": "name",
          "type": "string"
        },
        {
          "indexed": false,
          "internalType": "uint8",
          "name": "entityType",
          "type": "uint8"
        },
        {
          "indexed": false,
          "internalType": "address",
          "name": "wallet",
          "type": "address"
        }
      ],
      "name": "EntityRegistered",
      "type": "event"
    },
    {
      "inputs": [
        {
          "internalType": "bytes32",
          "name": "",
          "type": "bytes32"
        }
      ],
      "name": "batches",
      "outputs": [
        {
          "internalType": "bytes32",
          "name": "batchId",
          "type": "bytes32"
        },
        {
          "internalType": "bytes32",
          "name": "manufacturerEntityHash",
          "type": "bytes32"
        },
        {
          "internalType": "string",
          "name": "drugName",
          "type": "string"
        },
        {
          "internalType": "string",
          "name": "batchNumber",
          "type": "string"
        },
        {
          "internalType": "uint256",
          "name": "manufactureDate",
          "type": "uint256"
        },
        {
          "internalType": "uint256",
          "name": "expiryDate",
          "type": "uint256"
        },
        {
          "internalType": "bool",
          "name": "isActive",
          "type": "bool"
        }
      ],
      "stateMutability": "view",
      "type": "function"
    },
    {
      "inputs": [
        {
          "internalType": "bytes32",
          "name": "",
          "type": "bytes32"
        },
        {
          "internalType": "uint256",
          "name": "",
          "type": "uint256"
        }
      ],
      "name": "custodyChain",
      "outputs": [
        {
          "internalType": "bytes32",
          "name": "fromEntityHash",
          "type": "bytes32"
        },
        {
          "internalType": "bytes32",
          "name": "toEntityHash",
          "type": "bytes32"
        },
        {
          "internalType": "bytes32",
          "name": "batchId",
          "type": "bytes32"
        },
        {
          "internalType": "bytes32",
          "name": "zkProofLeafDigest",
          "type": "bytes32"
        },
        {
          "internalType": "bytes32",
          "name": "batchCommitment",
          "type": "bytes32"
        },
        {
          "internalType": "uint8",
          "name": "chainStep",
          "type": "uint8"
        },
        {
          "internalType": "uint256",
          "name": "timestamp",
          "type": "uint256"
        },
        {
          "internalType": "bool",
          "name": "zkVerified",
          "type": "bool"
        }
      ],
      "stateMutability": "view",
      "type": "function"
    },
    {
      "inputs": [
        {
          "internalType": "bytes32",
          "name": "",
          "type": "bytes32"
        }
      ],
      "name": "entities",
      "outputs": [
        {
          "internalType": "bytes32",
          "name": "entityIdHash",
          "type": "bytes32"
        },
        {
          "internalType": "string",
          "name": "name",
          "type": "string"
        },
        {
          "internalType": "uint8",
          "name": "entityType",
          "type": "uint8"
        },
        {
          "internalType": "bool",
          "name": "isActive",
          "type": "bool"
        },
        {
          "internalType": "address",
          "name": "wallet",
          "type": "address"
        }
      ],
      "stateMutability": "view",
      "type": "function"
    },
    {
      "inputs": [
        {
          "internalType": "bytes32",
          "name": "batchId",
          "type": "bytes32"
        }
      ],
      "name": "getFullCustodyChain",
      "outputs": [
        {
          "components": [
            {
              "internalType": "bytes32",
              "name": "fromEntityHash",
              "type": "bytes32"
            },
            {
              "internalType": "bytes32",
              "name": "toEntityHash",
              "type": "bytes32"
            },
            {
              "internalType": "bytes32",
              "name": "batchId",
              "type": "bytes32"
            },
            {
              "internalType": "bytes32",
              "name": "zkProofLeafDigest",
              "type": "bytes32"
            },
            {
              "internalType": "bytes32",
              "name": "batchCommitment",
              "type": "bytes32"
            },
            {
              "internalType": "uint8",
              "name": "chainStep",
              "type": "uint8"
            },
            {
              "internalType": "uint256",
              "name": "timestamp",
              "type": "uint256"
            },
            {
              "internalType": "bool",
              "name": "zkVerified",
              "type": "bool"
            }
          ],
          "internalType": "struct DrugChainRegistry.CustodyRecord[]",
          "name": "",
          "type": "tuple[]"
        }
      ],
      "stateMutability": "view",
      "type": "function"
    },
    {
      "inputs": [],
      "name": "owner",
      "outputs": [
        {
          "internalType": "address",
          "name": "",
          "type": "address"
        }
      ],
      "stateMutability": "view",
      "type": "function"
    },
    {
      "inputs": [
        {
          "internalType": "bytes32",
          "name": "batchId",
          "type": "bytes32"
        },
        {
          "internalType": "bytes32",
          "name": "toEntityHash",
          "type": "bytes32"
        },
        {
          "internalType": "bytes32",
          "name": "zkProofLeafDigest",
          "type": "bytes32"
        },
        {
          "internalType": "bytes32",
          "name": "batchCommitment",
          "type": "bytes32"
        },
        {
          "internalType": "uint8",
          "name": "chainStep",
          "type": "uint8"
        },
        {
          "internalType": "uint256",
          "name": "aggregationId",
          "type": "uint256"
        },
        {
          "internalType": "bytes32[]",
          "name": "merklePath",
          "type": "bytes32[]"
        },
        {
          "internalType": "bool[]",
          "name": "leafSide",
          "type": "bool[]"
        }
      ],
      "name": "recordCustodyTransfer",
      "outputs": [],
      "stateMutability": "nonpayable",
      "type": "function"
    },
    {
      "inputs": [
        {
          "internalType": "bytes32",
          "name": "batchId",
          "type": "bytes32"
        },
        {
          "internalType": "string",
          "name": "drugName",
          "type": "string"
        },
        {
          "internalType": "string",
          "name": "batchNumber",
          "type": "string"
        },
        {
          "internalType": "uint256",
          "name": "expiryDate",
          "type": "uint256"
        }
      ],
      "name": "registerBatch",
      "outputs": [],
      "stateMutability": "nonpayable",
      "type": "function"
    },
    {
      "inputs": [
        {
          "internalType": "bytes32",
          "name": "entityIdHash",
          "type": "bytes32"
        },
        {
          "internalType": "string",
          "name": "name",
          "type": "string"
        },
        {
          "internalType": "uint8",
          "name": "entityType",
          "type": "uint8"
        },
        {
          "internalType": "address",
          "name": "wallet",
          "type": "address"
        }
      ],
      "name": "registerEntity",
      "outputs": [],
      "stateMutability": "nonpayable",
      "type": "function"
    },
    {
      "inputs": [
        {
          "internalType": "bytes32",
          "name": "",
          "type": "bytes32"
        }
      ],
      "name": "verifiedProofs",
      "outputs": [
        {
          "internalType": "bool",
          "name": "",
          "type": "bool"
        }
      ],
      "stateMutability": "view",
      "type": "function"
    },
    {
      "inputs": [
        {
          "internalType": "bytes32",
          "name": "batchId",
          "type": "bytes32"
        }
      ],
      "name": "verifyBatchAtPharmacy",
      "outputs": [
        {
          "internalType": "bool",
          "name": "isAuthentic",
          "type": "bool"
        },
        {
          "internalType": "uint256",
          "name": "chainLength",
          "type": "uint256"
        },
        {
          "internalType": "uint256",
          "name": "lastVerifiedTimestamp",
          "type": "uint256"
        }
      ],
      "stateMutability": "view",
      "type": "function"
    },
    {
      "inputs": [
        {
          "internalType": "address",
          "name": "",
          "type": "address"
        }
      ],
      "name": "walletToEntity",
      "outputs": [
        {
          "internalType": "bytes32",
          "name": "",
          "type": "bytes32"
        }
      ],
      "stateMutability": "view",
      "type": "function"
    },
    {
      "inputs": [],
      "name": "zkVerifyProxy",
      "outputs": [
        {
          "internalType": "contract IZkVerify",
          "name": "",
          "type": "address"
        }
      ],
      "stateMutability": "view",
      "type": "function"
    }
  ],
  "bytecode": "0x60803461007a57601f61189538819003918201601f19168301916001600160401b0383118484101761007f5780849260209460405283398101031261007a57516001600160a01b0381169081900361007a5760018060a01b03193381600054161760005560015416176001556040516117ff90816100968239f35b600080fd5b634e487b7160e01b600052604160045260246000fdfe608080604052600436101561001357600080fd5b60003560e01c908163176d80c41461133c575080635a10798214610e7e57806363bc416f14610886578063692d771e1461085357806383d06421146108155780638da5cb5b146107ec5780639cc368b9146106d3578063c81e25ab14610635578063e55c3b5a146101e8578063e5b338fd14610169578063ea303ab4146101405763fbf888da146100a357600080fd5b3461013b57604036600319011261013b5760243560043560005260046020526040600020805482101561013b57610100916100dd91611522565b508054906001810154906002810154600382015460048301549060ff6005850154169260ff600760068701549601541695604051978852602088015260408701526060860152608085015260a084015260c0830152151560e0820152f35b600080fd5b3461013b57600036600319011261013b576001546040516001600160a01b039091168152602090f35b3461013b57602036600319011261013b57600435600052600260205260406000208054600261019a6001840161143d565b9201546101b9604051938493845260a0602085015260a08401906114e2565b60ff8083166040850152600883901c161515606084015260109190911c6001600160a01b031660808301520390f35b3461013b57608036600319011261013b5760246001600160401b03813581811161013b5761021a903690600401611369565b909160449081359360ff8516850361013b576001600160a01b0392606480359391858516850361013b578560005416330361060857600435600052600260205260ff60026040600020015460081c166105c757600360ff89161161059057858516156105565785851660005260066020526040600020546105095750506040519060a08201828110828211176104f45760405260043582526102bd3687856115a0565b906020830191825260ff88166040840152600160608401528585166080840152600435600052600260205260406000209183518355519889519182116104e0575061030b60018301546113c6565b601f8111610499575b506020601f82116001146103fe5760ff9492826103dc95936002937f4f91ab7188f04e47cf7377263398321fda0ad92ecf841895dc7c8445f494049b9c9d6000926103f3575b50508160011b916000199060031b1c19161760018201555b0190846040820151169082549161ff006060830151151560081b1691608062010000600160b01b0391015160101b169269ffffffffffffffffffff60b01b1617171790558484166000526006602052600435604060002055604051956060875260608701916115e6565b9516602084015216604082015280600435930390a2005b015190508d8061035a565b6001830160005260206000209960005b601f19841681106104815750926001837f4f91ab7188f04e47cf7377263398321fda0ad92ecf841895dc7c8445f494049b9b9c60029460ff99976103dc9997601f19811610610468575b505050811b016001820155610372565b015160001960f88460031b161c191690558d8080610458565b828201518c556001909b019a6020928301920161040e565b600183016000526020600020601f830160051c8101602084106104d9575b601f830160051c820181106104cd575050610314565b600081556001016104b7565b50806104b7565b634e487b7160e01b60009081526041600452fd5b88634e487b7160e01b60005260416004526000fd5b61747960f01b6084927f57616c6c657420616c7265616479206c696e6b656420746f20616e20656e74698b9360226040519562461bcd60e51b875260206004880152860152840152820152fd5b75496e76616c69642077616c6c6574206164647265737360501b899160166040519362461bcd60e51b855260206004860152840152820152fd5b72496e76616c696420656e74697479207479706560681b899160136040519362461bcd60e51b855260206004860152840152820152fd5b7f456e7469747920616c7265616479207265676973746572656400000000000000899160196040519362461bcd60e51b855260206004860152840152820152fd5b682737ba1037bbb732b960b91b899160096040519362461bcd60e51b855260206004860152840152820152fd5b3461013b57602036600319011261013b5760043560005260036020526040600020805460018201549161066a6002820161143d565b6106766003830161143d565b916106bd6004820154936106af60ff6006600586015495015416946040519889988952602089015260e0604089015260e08801906114e2565b9086820360608801526114e2565b92608085015260a0840152151560c08301520390f35b3461013b5760208060031936011261013b576004356000526004815260406000209081546001600160401b0381116107d65760405190610718838260051b018361141c565b8082528282018094600052836000206000915b8383106107b95760408051878152865181890181905289928201908960005b8281106107575784840385f35b855180518552808301518584015260408082015190860152606080820151908601526080808201519086015260a08082015160ff169086015260c0808201519086015260e090810151151590850152948101946101009093019260010161074a565b6008866001926107c885611607565b81520192019201919061072b565b634e487b7160e01b600052604160045260246000fd5b3461013b57600036600319011261013b576000546040516001600160a01b039091168152602090f35b3461013b57602036600319011261013b576004356001600160a01b0381169081900361013b5760005260066020526020604060002054604051908152f35b3461013b57602036600319011261013b576060610871600435611668565b90604051921515835260208301526040820152f35b3461013b5761010036600319011261013b5760843560ff8116810361013b576001600160401b0360c43581811161013b576108c5903690600401611396565b909160e43590811161013b576108df903690600401611396565b336000526006602052604060002054600052600260205261090d60ff60026040600020015460081c16611554565b600435600052600360205260ff6006604060002001541615610e4657602435600052600260205260ff60026040600020015460081c1615610e0157604435600052600560205260ff60406000205416610dc75760015460405163ae1c5c7d60e01b815260a435600482015260448035602483015260809082015260848101859052946001600160a01b0390911693906001600160fb1b03821161013b5760c4908694939260051b809160a487013784018260a4820160a0878403016064880152520191906000905b808210610d9e5750505091818060209403915afa908115610d9257600091610d57575b5015610d12573360005260066020526040600020546004356000526004602052604060002054801515600014610ca757600435600052600460205260406000206000198201918211610c9157610a5791610a5191611522565b50611607565b81602082015103610c4c5760a060ff9101511660ff83161115610c07575b604051610a8181611400565b818152602435602082015260043560408201526044356060820152606435608082015260ff831660a08201524260c0820152600160e0820152600435600052600460205260406000208054680100000000000000008110156107d657610aec91600182018155611522565b610bf157610b5e908251815560208301516001820155604083015160028201556060830151600382015560808301516004820155600760e0600583019460ff60a0820151169560ff19968782541617905560c081015160068501550151151591019060ff801983541691151516179055565b60443560005260056020526001604060002091825416179055604051908152602435602082015260ff821660408201527f5c18e5ea02909ab7f26024a3bdedcd64c5a7fb15e48c11f2231b193cc73bed99606060043592a260ff6040519160443583521660208201527fdc405c52b0a2758eae9d37e1e149d235ae3569cc618a86d327a8cf0e8f7b0add604060043592a2005b634e487b7160e01b600052600060045260246000fd5b60405162461bcd60e51b815260206004820152601e60248201527f496e76616c696420636861696e20737465702070726f6772657373696f6e00006044820152606490fd5b60405162461bcd60e51b815260206004820152601960248201527f4e6f74207468652063757272656e7420637573746f6469616e000000000000006044820152606490fd5b634e487b7160e01b600052601160045260246000fd5b5060036020526040600020600101548114610a755760405162461bcd60e51b815260206004820152602860248201527f4669727374207472616e73666572206d7573742062652066726f6d206d616e756044820152673330b1ba3ab932b960c11b6064820152608490fd5b60405162461bcd60e51b815260206004820152601b60248201527f5a4b2050726f6f66204174746573746174696f6e206661696c656400000000006044820152606490fd5b90506020813d602011610d8a575b81610d726020938361141c565b8101031261013b5751801515810361013b57826109f8565b3d9150610d65565b6040513d6000823e3d90fd5b919350918335801515919082900361013b576020816001938293520194019201859392916109d5565b60405162461bcd60e51b8152602060048201526012602482015271141c9bdbd988185b1c9958591e481d5cd95960721b6044820152606490fd5b60405162461bcd60e51b815260206004820152601b60248201527f526563656976696e6720656e74697479206e6f742061637469766500000000006044820152606490fd5b60405162461bcd60e51b815260206004820152601060248201526f4261746368206e6f742061637469766560801b6044820152606490fd5b3461013b57608036600319011261013b576024356001600160401b03811161013b57610eae903690600401611369565b6044356001600160401b03811161013b57610ecd903690600401611369565b92903360005260066020526040600020546000526002602052610efd60ff60026040600020015460081c16611554565b3360005260066020526040600020549081600052600260205260ff600260406000200154166112e757600435600052600360205260ff600660406000200154166112ab576040519460e086018681106001600160401b038211176107d6576040526004358652610f886020870192848452610f793688886115a0565b926040890193845236916115a0565b606087015242608087015260643560a0870152600160c0870152600435600052600360205260406000209186518355516001830155518051906001600160401b0382116107d6578190610fde60028501546113c6565b601f8111611258575b50602090601f83116001146111e6576000926111db575b50508160011b916000199060031b1c19161760028201555b60608501519485516001600160401b0381116107d65761103960038401546113c6565b601f8111611194575b506020601f82116001146110fa576110ca93928260069360c0937f091b2522ac0eaf16871ab1bdf545800630347ae398e7f27fa16794512cbb2ec29a9b6000926110ef575b50508160011b916000199060031b1c19161760038501555b6080810151600485015560a081015160058501550151151591019060ff801983541691151516179055565b6110ea6040519283928352604060208401526004359560408401916115e6565b0390a2005b015190508b80611087565b6003840160005260206000209760005b601f198416811061117c5750926001837f091b2522ac0eaf16871ab1bdf545800630347ae398e7f27fa16794512cbb2ec2999a60c0946110ca9897600697601f19811610611163575b505050811b01600385015561109f565b015160001960f88460031b161c191690558b8080611153565b828201518a556001909901986020928301920161110a565b600384016000526020600020601f830160051c8101602084106111d4575b601f830160051c820181106111c8575050611042565b600081556001016111b2565b50806111b2565b015190508780610ffe565b9250600284016000526020600020906000935b601f198416851061123d576001945083601f19811610611224575b505050811b016002820155611016565b015160001960f88460031b161c19169055878080611214565b818101518355602094850194600190930192909101906111f9565b909150600284016000526020600020601f840160051c8101602085106112a4575b90849392915b601f830160051c82018110611295575050610fe7565b6000815585945060010161127f565b5080611279565b60405162461bcd60e51b8152602060048201526014602482015273426174636820616c72656164792061637469766560601b6044820152606490fd5b60405162461bcd60e51b815260206004820152602760248201527f4f6e6c79206d616e756661637475726572732063616e207265676973746572206044820152666261746368657360c81b6064820152608490fd5b3461013b57602036600319011261013b576020906004356000526005825260ff6040600020541615158152f35b9181601f8401121561013b578235916001600160401b03831161013b576020838186019501011161013b57565b9181601f8401121561013b578235916001600160401b03831161013b576020808501948460051b01011161013b57565b90600182811c921680156113f6575b60208310146113e057565b634e487b7160e01b600052602260045260246000fd5b91607f16916113d5565b61010081019081106001600160401b038211176107d657604052565b90601f801991011681019081106001600160401b038211176107d657604052565b90604051918260008254611450816113c6565b908184526020946001916001811690816000146114c05750600114611481575b50505061147f9250038361141c565b565b600090815285812095935091905b8183106114a857505061147f9350820101388080611470565b8554888401850152948501948794509183019161148f565b9250505061147f94925060ff191682840152151560051b820101388080611470565b919082519283825260005b84811061150e575050826000602080949584010152601f8019910116010190565b6020818301810151848301820152016114ed565b805482101561153e5760005260206000209060031b0190600090565b634e487b7160e01b600052603260045260246000fd5b1561155b57565b60405162461bcd60e51b815260206004820152601e60248201527f43616c6c6572206973206e6f7420616e2061637469766520656e7469747900006044820152606490fd5b9291926001600160401b0382116107d657604051916115c9601f8201601f19166020018461141c565b82948184528183011161013b578281602093846000960137010152565b908060209392818452848401376000828201840152601f01601f1916010190565b9060405161161481611400565b60e060ff6007839580548552600181015460208601526002810154604086015260038101546060860152600481015460808601528260058201541660a0860152600681015460c08601520154161515910152565b6000908082526020906003825260ff6006604085200154161561178b57825260048152604082209182546001600160401b03811161177757604051936116b3848360051b018661141c565b81855282528282208290848087015b848410611758575050505050825192831561174e57600019840184811161173a57815181101561172657600260408560039460ff9460051b010151948260c087015197808801518352522001541614908161171b575092565b60e091500151151592565b634e487b7160e01b83526032600452602483fd5b634e487b7160e01b83526011600452602483fd5b5091505080918190565b60019160089161176785611607565b81520192019201919085906116c2565b634e487b7160e01b82526041600452602482fd5b60405162461bcd60e51b81526004810183905260166024820152754261746368206e6f7420666f756e642f61637469766560501b6044820152606490fdfea26469706673582212207fba77799b266cb534dcc98f8e01832bc8988dac016bd16a93c1b91fb85f3ffd64736f6c63430008180033",
  "linkReferences": {},
  "deployedLinkReferences": {}
}